{
  "contractName": "JackedApeClub",
  "abi": [
    {
      "inputs": [
        {
          "internalType": "string",
          "name": "_name",
          "type": "string"
        },
        {
          "internalType": "string",
          "name": "_symbol",
          "type": "string"
        },
        {
          "internalType": "string",
          "name": "_initBaseURI",
          "type": "string"
        },
        {
          "internalType": "string",
          "name": "_initNotRevealedUri",
          "type": "string"
        }
      ],
      "stateMutability": "nonpayable",
      "type": "constructor"
    },
    {
      "anonymous": false,
      "inputs": [
        {
          "indexed": true,
          "internalType": "address",
          "name": "owner",
          "type": "address"
        },
        {
          "indexed": true,
          "internalType": "address",
          "name": "approved",
          "type": "address"
        },
        {
          "indexed": true,
          "internalType": "uint256",
          "name": "tokenId",
          "type": "uint256"
        }
      ],
      "name": "Approval",
      "type": "event"
    },
    {
      "anonymous": false,
      "inputs": [
        {
          "indexed": true,
          "internalType": "address",
          "name": "owner",
          "type": "address"
        },
        {
          "indexed": true,
          "internalType": "address",
          "name": "operator",
          "type": "address"
        },
        {
          "indexed": false,
          "internalType": "bool",
          "name": "approved",
          "type": "bool"
        }
      ],
      "name": "ApprovalForAll",
      "type": "event"
    },
    {
      "anonymous": false,
      "inputs": [
        {
          "indexed": true,
          "internalType": "address",
          "name": "previousOwner",
          "type": "address"
        },
        {
          "indexed": true,
          "internalType": "address",
          "name": "newOwner",
          "type": "address"
        }
      ],
      "name": "OwnershipTransferred",
      "type": "event"
    },
    {
      "anonymous": false,
      "inputs": [
        {
          "indexed": true,
          "internalType": "address",
          "name": "from",
          "type": "address"
        },
        {
          "indexed": true,
          "internalType": "address",
          "name": "to",
          "type": "address"
        },
        {
          "indexed": true,
          "internalType": "uint256",
          "name": "tokenId",
          "type": "uint256"
        }
      ],
      "name": "Transfer",
      "type": "event"
    },
    {
      "inputs": [
        {
          "internalType": "address",
          "name": "",
          "type": "address"
        }
      ],
      "name": "addressMintedBalance",
      "outputs": [
        {
          "internalType": "uint256",
          "name": "",
          "type": "uint256"
        }
      ],
      "stateMutability": "view",
      "type": "function",
      "constant": true
    },
    {
      "inputs": [
        {
          "internalType": "address",
          "name": "to",
          "type": "address"
        },
        {
          "internalType": "uint256",
          "name": "tokenId",
          "type": "uint256"
        }
      ],
      "name": "approve",
      "outputs": [],
      "stateMutability": "nonpayable",
      "type": "function"
    },
    {
      "inputs": [
        {
          "internalType": "address",
          "name": "owner",
          "type": "address"
        }
      ],
      "name": "balanceOf",
      "outputs": [
        {
          "internalType": "uint256",
          "name": "",
          "type": "uint256"
        }
      ],
      "stateMutability": "view",
      "type": "function",
      "constant": true
    },
    {
      "inputs": [],
      "name": "baseExtension",
      "outputs": [
        {
          "internalType": "string",
          "name": "",
          "type": "string"
        }
      ],
      "stateMutability": "view",
      "type": "function",
      "constant": true
    },
    {
      "inputs": [],
      "name": "baseURI",
      "outputs": [
        {
          "internalType": "string",
          "name": "",
          "type": "string"
        }
      ],
      "stateMutability": "view",
      "type": "function",
      "constant": true
    },
    {
      "inputs": [],
      "name": "cost",
      "outputs": [
        {
          "internalType": "uint256",
          "name": "",
          "type": "uint256"
        }
      ],
      "stateMutability": "view",
      "type": "function",
      "constant": true
    },
    {
      "inputs": [
        {
          "internalType": "uint256",
          "name": "tokenId",
          "type": "uint256"
        }
      ],
      "name": "getApproved",
      "outputs": [
        {
          "internalType": "address",
          "name": "",
          "type": "address"
        }
      ],
      "stateMutability": "view",
      "type": "function",
      "constant": true
    },
    {
      "inputs": [
        {
          "internalType": "address",
          "name": "owner",
          "type": "address"
        },
        {
          "internalType": "address",
          "name": "operator",
          "type": "address"
        }
      ],
      "name": "isApprovedForAll",
      "outputs": [
        {
          "internalType": "bool",
          "name": "",
          "type": "bool"
        }
      ],
      "stateMutability": "view",
      "type": "function",
      "constant": true
    },
    {
      "inputs": [],
      "name": "maxMintAmount",
      "outputs": [
        {
          "internalType": "uint256",
          "name": "",
          "type": "uint256"
        }
      ],
      "stateMutability": "view",
      "type": "function",
      "constant": true
    },
    {
      "inputs": [],
      "name": "maxSupply",
      "outputs": [
        {
          "internalType": "uint256",
          "name": "",
          "type": "uint256"
        }
      ],
      "stateMutability": "view",
      "type": "function",
      "constant": true
    },
    {
      "inputs": [],
      "name": "maxSupplyForPresale",
      "outputs": [
        {
          "internalType": "uint256",
          "name": "",
          "type": "uint256"
        }
      ],
      "stateMutability": "view",
      "type": "function",
      "constant": true
    },
    {
      "inputs": [],
      "name": "name",
      "outputs": [
        {
          "internalType": "string",
          "name": "",
          "type": "string"
        }
      ],
      "stateMutability": "view",
      "type": "function",
      "constant": true
    },
    {
      "inputs": [],
      "name": "nftPerOGAddressLimit",
      "outputs": [
        {
          "internalType": "uint256",
          "name": "",
          "type": "uint256"
        }
      ],
      "stateMutability": "view",
      "type": "function",
      "constant": true
    },
    {
      "inputs": [],
      "name": "nftPerWhitelistAddressLimit",
      "outputs": [
        {
          "internalType": "uint256",
          "name": "",
          "type": "uint256"
        }
      ],
      "stateMutability": "view",
      "type": "function",
      "constant": true
    },
    {
      "inputs": [],
      "name": "notRevealedUri",
      "outputs": [
        {
          "internalType": "string",
          "name": "",
          "type": "string"
        }
      ],
      "stateMutability": "view",
      "type": "function",
      "constant": true
    },
    {
      "inputs": [],
      "name": "onlyPresale",
      "outputs": [
        {
          "internalType": "bool",
          "name": "",
          "type": "bool"
        }
      ],
      "stateMutability": "view",
      "type": "function",
      "constant": true
    },
    {
      "inputs": [],
      "name": "owner",
      "outputs": [
        {
          "internalType": "address",
          "name": "",
          "type": "address"
        }
      ],
      "stateMutability": "view",
      "type": "function",
      "constant": true
    },
    {
      "inputs": [
        {
          "internalType": "uint256",
          "name": "tokenId",
          "type": "uint256"
        }
      ],
      "name": "ownerOf",
      "outputs": [
        {
          "internalType": "address",
          "name": "",
          "type": "address"
        }
      ],
      "stateMutability": "view",
      "type": "function",
      "constant": true
    },
    {
      "inputs": [],
      "name": "paused",
      "outputs": [
        {
          "internalType": "bool",
          "name": "",
          "type": "bool"
        }
      ],
      "stateMutability": "view",
      "type": "function",
      "constant": true
    },
    {
      "inputs": [],
      "name": "renounceOwnership",
      "outputs": [],
      "stateMutability": "nonpayable",
      "type": "function"
    },
    {
      "inputs": [],
      "name": "revealed",
      "outputs": [
        {
          "internalType": "bool",
          "name": "",
          "type": "bool"
        }
      ],
      "stateMutability": "view",
      "type": "function",
      "constant": true
    },
    {
      "inputs": [
        {
          "internalType": "address",
          "name": "from",
          "type": "address"
        },
        {
          "internalType": "address",
          "name": "to",
          "type": "address"
        },
        {
          "internalType": "uint256",
          "name": "tokenId",
          "type": "uint256"
        }
      ],
      "name": "safeTransferFrom",
      "outputs": [],
      "stateMutability": "nonpayable",
      "type": "function"
    },
    {
      "inputs": [
        {
          "internalType": "address",
          "name": "from",
          "type": "address"
        },
        {
          "internalType": "address",
          "name": "to",
          "type": "address"
        },
        {
          "internalType": "uint256",
          "name": "tokenId",
          "type": "uint256"
        },
        {
          "internalType": "bytes",
          "name": "data",
          "type": "bytes"
        }
      ],
      "name": "safeTransferFrom",
      "outputs": [],
      "stateMutability": "nonpayable",
      "type": "function"
    },
    {
      "inputs": [
        {
          "internalType": "address",
          "name": "operator",
          "type": "address"
        },
        {
          "internalType": "bool",
          "name": "approved",
          "type": "bool"
        }
      ],
      "name": "setApprovalForAll",
      "outputs": [],
      "stateMutability": "nonpayable",
      "type": "function"
    },
    {
      "inputs": [
        {
          "internalType": "bytes4",
          "name": "interfaceId",
          "type": "bytes4"
        }
      ],
      "name": "supportsInterface",
      "outputs": [
        {
          "internalType": "bool",
          "name": "",
          "type": "bool"
        }
      ],
      "stateMutability": "view",
      "type": "function",
      "constant": true
    },
    {
      "inputs": [],
      "name": "symbol",
      "outputs": [
        {
          "internalType": "string",
          "name": "",
          "type": "string"
        }
      ],
      "stateMutability": "view",
      "type": "function",
      "constant": true
    },
    {
      "inputs": [
        {
          "internalType": "uint256",
          "name": "index",
          "type": "uint256"
        }
      ],
      "name": "tokenByIndex",
      "outputs": [
        {
          "internalType": "uint256",
          "name": "",
          "type": "uint256"
        }
      ],
      "stateMutability": "view",
      "type": "function",
      "constant": true
    },
    {
      "inputs": [
        {
          "internalType": "address",
          "name": "owner",
          "type": "address"
        },
        {
          "internalType": "uint256",
          "name": "index",
          "type": "uint256"
        }
      ],
      "name": "tokenOfOwnerByIndex",
      "outputs": [
        {
          "internalType": "uint256",
          "name": "",
          "type": "uint256"
        }
      ],
      "stateMutability": "view",
      "type": "function",
      "constant": true
    },
    {
      "inputs": [],
      "name": "totalSupply",
      "outputs": [
        {
          "internalType": "uint256",
          "name": "",
          "type": "uint256"
        }
      ],
      "stateMutability": "view",
      "type": "function",
      "constant": true
    },
    {
      "inputs": [
        {
          "internalType": "address",
          "name": "from",
          "type": "address"
        },
        {
          "internalType": "address",
          "name": "to",
          "type": "address"
        },
        {
          "internalType": "uint256",
          "name": "tokenId",
          "type": "uint256"
        }
      ],
      "name": "transferFrom",
      "outputs": [],
      "stateMutability": "nonpayable",
      "type": "function"
    },
    {
      "inputs": [
        {
          "internalType": "address",
          "name": "newOwner",
          "type": "address"
        }
      ],
      "name": "transferOwnership",
      "outputs": [],
      "stateMutability": "nonpayable",
      "type": "function"
    },
    {
      "inputs": [
        {
          "internalType": "uint256",
          "name": "_mintAmount",
          "type": "uint256"
        }
      ],
      "name": "mint",
      "outputs": [],
      "stateMutability": "payable",
      "type": "function",
      "payable": true
    },
    {
      "inputs": [
        {
          "internalType": "uint256",
          "name": "_mintAmount",
          "type": "uint256"
        },
        {
          "internalType": "bool",
          "name": "_whitelist",
          "type": "bool"
        },
        {
          "internalType": "bytes32[]",
          "name": "_merkleProof",
          "type": "bytes32[]"
        }
      ],
      "name": "whitelistMint",
      "outputs": [],
      "stateMutability": "payable",
      "type": "function",
      "payable": true
    },
    {
      "inputs": [
        {
          "internalType": "bytes32",
          "name": "root",
          "type": "bytes32"
        }
      ],
      "name": "setWhitelistMerkleRoot",
      "outputs": [],
      "stateMutability": "nonpayable",
      "type": "function"
    },
    {
      "inputs": [
        {
          "internalType": "bytes32",
          "name": "root",
          "type": "bytes32"
        }
      ],
      "name": "setOGMerkleRoot",
      "outputs": [],
      "stateMutability": "nonpayable",
      "type": "function"
    },
    {
      "inputs": [
        {
          "internalType": "address",
          "name": "_owner",
          "type": "address"
        }
      ],
      "name": "walletOfOwner",
      "outputs": [
        {
          "internalType": "uint256[]",
          "name": "",
          "type": "uint256[]"
        }
      ],
      "stateMutability": "view",
      "type": "function",
      "constant": true
    },
    {
      "inputs": [
        {
          "internalType": "uint256",
          "name": "tokenId",
          "type": "uint256"
        }
      ],
      "name": "tokenURI",
      "outputs": [
        {
          "internalType": "string",
          "name": "",
          "type": "string"
        }
      ],
      "stateMutability": "view",
      "type": "function",
      "constant": true
    },
    {
      "inputs": [
        {
          "internalType": "string",
          "name": "_newBaseURI",
          "type": "string"
        }
      ],
      "name": "setBaseURI",
      "outputs": [],
      "stateMutability": "nonpayable",
      "type": "function"
    },
    {
      "inputs": [
        {
          "internalType": "string",
          "name": "_notRevealedURI",
          "type": "string"
        }
      ],
      "name": "setNotRevealedURI",
      "outputs": [],
      "stateMutability": "nonpayable",
      "type": "function"
    },
    {
      "inputs": [],
      "name": "reveal",
      "outputs": [],
      "stateMutability": "nonpayable",
      "type": "function"
    },
    {
      "inputs": [
        {
          "internalType": "uint256",
          "name": "_limit",
          "type": "uint256"
        }
      ],
      "name": "setNftPerWhitelistAddressLimit",
      "outputs": [],
      "stateMutability": "nonpayable",
      "type": "function"
    },
    {
      "inputs": [
        {
          "internalType": "uint256",
          "name": "_limit",
          "type": "uint256"
        }
      ],
      "name": "setNftPerOGAddressLimit",
      "outputs": [],
      "stateMutability": "nonpayable",
      "type": "function"
    },
    {
      "inputs": [
        {
          "internalType": "uint256",
          "name": "_newmaxMintAmount",
          "type": "uint256"
        }
      ],
      "name": "setmaxMintAmount",
      "outputs": [],
      "stateMutability": "nonpayable",
      "type": "function"
    },
    {
      "inputs": [
        {
          "internalType": "bool",
          "name": "_state",
          "type": "bool"
        }
      ],
      "name": "pause",
      "outputs": [],
      "stateMutability": "nonpayable",
      "type": "function"
    },
    {
      "inputs": [
        {
          "internalType": "bool",
          "name": "_state",
          "type": "bool"
        }
      ],
      "name": "setOnlyPresale",
      "outputs": [],
      "stateMutability": "nonpayable",
      "type": "function"
    },
    {
      "inputs": [],
      "name": "withdraw",
      "outputs": [],
      "stateMutability": "payable",
      "type": "function",
      "payable": true
    }
  ],
  "bytecode": "0x60806040526040518060400160405280600581526020017f2e6a736f6e000000000000000000000000000000000000000000000000000000815250600d90805190602001906200005192919062000360565b50670214e8348c4f0000600e556122b8600f55611b586010556005601155600160125560026013556000601460006101000a81548160ff0219169083151502179055506001601460016101000a81548160ff0219169083151502179055506000601460026101000a81548160ff021916908315150217905550348015620000d757600080fd5b5060405162005de738038062005de78339818101604052810190620000fd9190620005ad565b838381600090805190602001906200011792919062000360565b5080600190805190602001906200013092919062000360565b50505062000153620001476200017f60201b60201c565b6200018760201b60201c565b62000164826200024d60201b60201c565b62000175816200027960201b60201c565b5050505062000782565b600033905090565b6000600a60009054906101000a900473ffffffffffffffffffffffffffffffffffffffff16905081600a60006101000a81548173ffffffffffffffffffffffffffffffffffffffff021916908373ffffffffffffffffffffffffffffffffffffffff1602179055508173ffffffffffffffffffffffffffffffffffffffff168173ffffffffffffffffffffffffffffffffffffffff167f8be0079c531659141344cd1fd0a4f28419497f9722a3daafe3b4186f6b6457e060405160405180910390a35050565b6200025d620002a560201b60201c565b80600b90805190602001906200027592919062000360565b5050565b62000289620002a560201b60201c565b80600c9080519060200190620002a192919062000360565b5050565b620002b56200017f60201b60201c565b73ffffffffffffffffffffffffffffffffffffffff16620002db6200033660201b60201c565b73ffffffffffffffffffffffffffffffffffffffff161462000334576040517f08c379a00000000000000000000000000000000000000000000000000000000081526004016200032b90620006fc565b60405180910390fd5b565b6000600a60009054906101000a900473ffffffffffffffffffffffffffffffffffffffff16905090565b8280546200036e906200074d565b90600052602060002090601f016020900481019282620003925760008555620003de565b82601f10620003ad57805160ff1916838001178555620003de565b82800160010185558215620003de579182015b82811115620003dd578251825591602001919060010190620003c0565b5b509050620003ed9190620003f1565b5090565b5b808211156200040c576000816000905550600101620003f2565b5090565b6000604051905090565b600080fd5b600080fd5b600080fd5b600080fd5b6000601f19601f8301169050919050565b7f4e487b7100000000000000000000000000000000000000000000000000000000600052604160045260246000fd5b62000479826200042e565b810181811067ffffffffffffffff821117156200049b576200049a6200043f565b5b80604052505050565b6000620004b062000410565b9050620004be82826200046e565b919050565b600067ffffffffffffffff821115620004e157620004e06200043f565b5b620004ec826200042e565b9050602081019050919050565b60005b8381101562000519578082015181840152602081019050620004fc565b8381111562000529576000848401525b50505050565b6000620005466200054084620004c3565b620004a4565b90508281526020810184848401111562000565576200056462000429565b5b62000572848285620004f9565b509392505050565b600082601f83011262000592576200059162000424565b5b8151620005a48482602086016200052f565b91505092915050565b60008060008060808587031215620005ca57620005c96200041a565b5b600085015167ffffffffffffffff811115620005eb57620005ea6200041f565b5b620005f9878288016200057a565b945050602085015167ffffffffffffffff8111156200061d576200061c6200041f565b5b6200062b878288016200057a565b935050604085015167ffffffffffffffff8111156200064f576200064e6200041f565b5b6200065d878288016200057a565b925050606085015167ffffffffffffffff8111156200068157620006806200041f565b5b6200068f878288016200057a565b91505092959194509250565b600082825260208201905092915050565b7f4f776e61626c653a2063616c6c6572206973206e6f7420746865206f776e6572600082015250565b6000620006e46020836200069b565b9150620006f182620006ac565b602082019050919050565b600060208201905081810360008301526200071781620006d5565b9050919050565b7f4e487b7100000000000000000000000000000000000000000000000000000000600052602260045260246000fd5b600060028204905060018216806200076657607f821691505b6020821081036200077c576200077b6200071e565b5b50919050565b61565580620007926000396000f3fe60806040526004361061027d5760003560e01c80635c19cd751161014f578063a22cb465116100c1578063ca777e211161007a578063ca777e211461095d578063d5abeb0114610986578063e53c1656146109b1578063e985e9c5146109dc578063f2c4ce1e14610a19578063f2fde38b14610a425761027d565b8063a22cb46514610863578063a475b5dd1461088c578063b88d4fde146108a3578063bd32fb66146108cc578063c6682862146108f5578063c87b56dd146109205761027d565b806370a082311161011357806370a0823114610774578063715018a6146107b15780637f00c7a6146107c85780638da5cb5b146107f157806395d89b411461081c578063a0712d68146108475761027d565b80635c19cd751461068b5780635c975abb146106b657806361cb9161146106e15780636352211e1461070c5780636c0360eb146107495761027d565b80631e64e2b6116101f357806342842e0e116101ac57806342842e0e1461056b578063438b6300146105945780634f6ccce7146105d1578063518302271461060e57806355f804b3146106395780635b53b20d146106625761027d565b80631e64e2b61461047e578063239c70ae146104a757806323b872dd146104d257806325c2c020146104fb5780632f745c59146105245780633ccfd60b146105615761027d565b8063081c8c4411610245578063081c8c441461037b578063095ea7b3146103a65780630a8e5489146103cf57806313faede6146103eb57806318160ddd1461041657806318cae269146104415761027d565b806301ffc9a71461028257806302329a29146102bf5780630640ab4e146102e857806306fdde0314610313578063081812fc1461033e575b600080fd5b34801561028e57600080fd5b506102a960048036038101906102a49190613ac5565b610a6b565b6040516102b69190613b0d565b60405180910390f35b3480156102cb57600080fd5b506102e660048036038101906102e19190613b54565b610ae5565b005b3480156102f457600080fd5b506102fd610b0a565b60405161030a9190613b9a565b60405180910390f35b34801561031f57600080fd5b50610328610b10565b6040516103359190613c4e565b60405180910390f35b34801561034a57600080fd5b5061036560048036038101906103609190613c9c565b610ba2565b6040516103729190613d0a565b60405180910390f35b34801561038757600080fd5b50610390610be8565b60405161039d9190613c4e565b60405180910390f35b3480156103b257600080fd5b506103cd60048036038101906103c89190613d51565b610c76565b005b6103e960048036038101906103e49190613df6565b610d8d565b005b3480156103f757600080fd5b50610400611212565b60405161040d9190613b9a565b60405180910390f35b34801561042257600080fd5b5061042b611218565b6040516104389190613b9a565b60405180910390f35b34801561044d57600080fd5b5061046860048036038101906104639190613e6a565b611225565b6040516104759190613b9a565b60405180910390f35b34801561048a57600080fd5b506104a560048036038101906104a09190613c9c565b61123d565b005b3480156104b357600080fd5b506104bc61124f565b6040516104c99190613b9a565b60405180910390f35b3480156104de57600080fd5b506104f960048036038101906104f49190613e97565b611255565b005b34801561050757600080fd5b50610522600480360381019061051d9190613f20565b6112b5565b005b34801561053057600080fd5b5061054b60048036038101906105469190613d51565b6112c7565b6040516105589190613b9a565b60405180910390f35b61056961136c565b005b34801561057757600080fd5b50610592600480360381019061058d9190613e97565b611bf4565b005b3480156105a057600080fd5b506105bb60048036038101906105b69190613e6a565b611c14565b6040516105c8919061400b565b60405180910390f35b3480156105dd57600080fd5b506105f860048036038101906105f39190613c9c565b611cc2565b6040516106059190613b9a565b60405180910390f35b34801561061a57600080fd5b50610623611d33565b6040516106309190613b0d565b60405180910390f35b34801561064557600080fd5b50610660600480360381019061065b919061415d565b611d46565b005b34801561066e57600080fd5b5061068960048036038101906106849190613c9c565b611d68565b005b34801561069757600080fd5b506106a0611d7a565b6040516106ad9190613b9a565b60405180910390f35b3480156106c257600080fd5b506106cb611d80565b6040516106d89190613b0d565b60405180910390f35b3480156106ed57600080fd5b506106f6611d93565b6040516107039190613b0d565b60405180910390f35b34801561071857600080fd5b50610733600480360381019061072e9190613c9c565b611da6565b6040516107409190613d0a565b60405180910390f35b34801561075557600080fd5b5061075e611e57565b60405161076b9190613c4e565b60405180910390f35b34801561078057600080fd5b5061079b60048036038101906107969190613e6a565b611ee5565b6040516107a89190613b9a565b60405180910390f35b3480156107bd57600080fd5b506107c6611f9c565b005b3480156107d457600080fd5b506107ef60048036038101906107ea9190613c9c565b611fb0565b005b3480156107fd57600080fd5b50610806611fc2565b6040516108139190613d0a565b60405180910390f35b34801561082857600080fd5b50610831611fec565b60405161083e9190613c4e565b60405180910390f35b610861600480360381019061085c9190613c9c565b61207e565b005b34801561086f57600080fd5b5061088a600480360381019061088591906141a6565b61222d565b005b34801561089857600080fd5b506108a1612243565b005b3480156108af57600080fd5b506108ca60048036038101906108c59190614287565b612268565b005b3480156108d857600080fd5b506108f360048036038101906108ee9190613f20565b6122ca565b005b34801561090157600080fd5b5061090a6122dc565b6040516109179190613c4e565b60405180910390f35b34801561092c57600080fd5b5061094760048036038101906109429190613c9c565b61236a565b6040516109549190613c4e565b60405180910390f35b34801561096957600080fd5b50610984600480360381019061097f9190613b54565b6124c2565b005b34801561099257600080fd5b5061099b6124e7565b6040516109a89190613b9a565b60405180910390f35b3480156109bd57600080fd5b506109c66124ed565b6040516109d39190613b9a565b60405180910390f35b3480156109e857600080fd5b50610a0360048036038101906109fe919061430a565b6124f3565b604051610a109190613b0d565b60405180910390f35b348015610a2557600080fd5b50610a406004803603810190610a3b919061415d565b612587565b005b348015610a4e57600080fd5b50610a696004803603810190610a649190613e6a565b6125a9565b005b60007f780e9d63000000000000000000000000000000000000000000000000000000007bffffffffffffffffffffffffffffffffffffffffffffffffffffffff1916827bffffffffffffffffffffffffffffffffffffffffffffffffffffffff19161480610ade5750610add8261262c565b5b9050919050565b610aed61270e565b80601460006101000a81548160ff02191690831515021790555050565b60135481565b606060008054610b1f90614379565b80601f0160208091040260200160405190810160405280929190818152602001828054610b4b90614379565b8015610b985780601f10610b6d57610100808354040283529160200191610b98565b820191906000526020600020905b815481529060010190602001808311610b7b57829003601f168201915b5050505050905090565b6000610bad8261278c565b6004600083815260200190815260200160002060009054906101000a900473ffffffffffffffffffffffffffffffffffffffff169050919050565b600c8054610bf590614379565b80601f0160208091040260200160405190810160405280929190818152602001828054610c2190614379565b8015610c6e5780601f10610c4357610100808354040283529160200191610c6e565b820191906000526020600020905b815481529060010190602001808311610c5157829003601f168201915b505050505081565b6000610c8182611da6565b90508073ffffffffffffffffffffffffffffffffffffffff168373ffffffffffffffffffffffffffffffffffffffff1603610cf1576040517f08c379a0000000000000000000000000000000000000000000000000000000008152600401610ce89061441c565b60405180910390fd5b8073ffffffffffffffffffffffffffffffffffffffff16610d106127d7565b73ffffffffffffffffffffffffffffffffffffffff161480610d3f5750610d3e81610d396127d7565b6124f3565b5b610d7e576040517f08c379a0000000000000000000000000000000000000000000000000000000008152600401610d75906144ae565b60405180910390fd5b610d8883836127df565b505050565b601460009054906101000a900460ff1615610ddd576040517f08c379a0000000000000000000000000000000000000000000000000000000008152600401610dd49061451a565b60405180910390fd5b601460029054906101000a900460ff16610e2c576040517f08c379a0000000000000000000000000000000000000000000000000000000008152600401610e2390614586565b60405180910390fd5b6000610e36611218565b905060008511610e7b576040517f08c379a0000000000000000000000000000000000000000000000000000000008152600401610e72906145f2565b60405180910390fd5b6010548582610e8a9190614641565b1115610ecb576040517f08c379a0000000000000000000000000000000000000000000000000000000008152600401610ec290614709565b60405180910390fd5b6000601760003373ffffffffffffffffffffffffffffffffffffffff1673ffffffffffffffffffffffffffffffffffffffff168152602001908152602001600020549050841561101f576012548682610f249190614641565b1115610f65576040517f08c379a0000000000000000000000000000000000000000000000000000000008152600401610f5c9061479b565b60405180910390fd5b600033604051602001610f789190614803565b604051602081830303815290604052805190602001209050610fde858580806020026020016040519081016040528093929190818152602001838360200280828437600081840152601f19601f8201169050808301925050505050505060155483612898565b61101d576040517f08c379a000000000000000000000000000000000000000000000000000000000815260040161101490614890565b60405180910390fd5b505b8461112e5760135486826110339190614641565b1115611074576040517f08c379a000000000000000000000000000000000000000000000000000000000815260040161106b906148fc565b60405180910390fd5b6000336040516020016110879190614803565b6040516020818303038152906040528051906020012090506110ed858580806020026020016040519081016040528093929190818152602001838360200280828437600081840152601f19601f8201169050808301925050505050505060165483612898565b61112c576040517f08c379a000000000000000000000000000000000000000000000000000000000815260040161112390614968565b60405180910390fd5b505b85600e5461113c9190614988565b34101561117e576040517f08c379a000000000000000000000000000000000000000000000000000000000815260040161117590614a2e565b60405180910390fd5b6000600190505b86811161120957601760003373ffffffffffffffffffffffffffffffffffffffff1673ffffffffffffffffffffffffffffffffffffffff16815260200190815260200160002060008154809291906111dc90614a4e565b91905055506111f63382856111f19190614641565b6128af565b808061120190614a4e565b915050611185565b50505050505050565b600e5481565b6000600880549050905090565b60176020528060005260406000206000915090505481565b61124561270e565b8060128190555050565b60115481565b6112666112606127d7565b826128cd565b6112a5576040517f08c379a000000000000000000000000000000000000000000000000000000000815260040161129c90614b08565b60405180910390fd5b6112b0838383612962565b505050565b6112bd61270e565b8060168190555050565b60006112d283611ee5565b8210611313576040517f08c379a000000000000000000000000000000000000000000000000000000000815260040161130a90614b9a565b60405180910390fd5b600660008473ffffffffffffffffffffffffffffffffffffffff1673ffffffffffffffffffffffffffffffffffffffff168152602001908152602001600020600083815260200190815260200160002054905092915050565b61137461270e565b600073da66e4f7b6e36a1489788820870432b483230d9273ffffffffffffffffffffffffffffffffffffffff166103e860c3476113b19190614988565b6113bb9190614be9565b6040516113c790614c4b565b60006040518083038185875af1925050503d8060008114611404576040519150601f19603f3d011682016040523d82523d6000602084013e611409565b606091505b505090508061141757600080fd5b600073292bec2537cefad1b002a7ad766c12da096d531673ffffffffffffffffffffffffffffffffffffffff166402540be40063906248b84761145a9190614988565b6114649190614be9565b60405161147090614c4b565b60006040518083038185875af1925050503d80600081146114ad576040519150601f19603f3d011682016040523d82523d6000602084013e6114b2565b606091505b50509050806114c057600080fd5b60007363d73c33e75bfdb14c18a734713239b98357d55273ffffffffffffffffffffffffffffffffffffffff166402540be40063c36cd10d476115039190614988565b61150d9190614be9565b60405161151990614c4b565b60006040518083038185875af1925050503d8060008114611556576040519150601f19603f3d011682016040523d82523d6000602084013e61155b565b606091505b505090508061156957600080fd5b6000736085ab3dd565fde4deec682f9cd9250d7909eb6673ffffffffffffffffffffffffffffffffffffffff166402540be40063d2cc0296476115ac9190614988565b6115b69190614be9565b6040516115c290614c4b565b60006040518083038185875af1925050503d80600081146115ff576040519150601f19603f3d011682016040523d82523d6000602084013e611604565b606091505b505090508061161257600080fd5b6000731c05d8263bff5a05b037763396dd7a48faee3b6d73ffffffffffffffffffffffffffffffffffffffff166402540be4006370762b05476116559190614988565b61165f9190614be9565b60405161166b90614c4b565b60006040518083038185875af1925050503d80600081146116a8576040519150601f19603f3d011682016040523d82523d6000602084013e6116ad565b606091505b50509050806116bb57600080fd5b600073496031d43a681e510cbcfc281899f25e0d83b4b473ffffffffffffffffffffffffffffffffffffffff166402540be400638a9d8e53476116fe9190614988565b6117089190614be9565b60405161171490614c4b565b60006040518083038185875af1925050503d8060008114611751576040519150601f19603f3d011682016040523d82523d6000602084013e611756565b606091505b505090508061176457600080fd5b600073900168607d7ff7c545c11c0dae5db6e8223c090973ffffffffffffffffffffffffffffffffffffffff166402540be40063b49ec136476117a79190614988565b6117b19190614be9565b6040516117bd90614c4b565b60006040518083038185875af1925050503d80600081146117fa576040519150601f19603f3d011682016040523d82523d6000602084013e6117ff565b606091505b505090508061180d57600080fd5b600073662e7268d9316a565ec40b6d4b71117adf89d99373ffffffffffffffffffffffffffffffffffffffff166402540be40063819347d3476118509190614988565b61185a9190614be9565b60405161186690614c4b565b60006040518083038185875af1925050503d80600081146118a3576040519150601f19603f3d011682016040523d82523d6000602084013e6118a8565b606091505b50509050806118b657600080fd5b6000736ea2f734c066cc8677b2c0ce386cd827ad1636cd73ffffffffffffffffffffffffffffffffffffffff166402540be40063635750ab476118f99190614988565b6119039190614be9565b60405161190f90614c4b565b60006040518083038185875af1925050503d806000811461194c576040519150601f19603f3d011682016040523d82523d6000602084013e611951565b606091505b505090508061195f57600080fd5b600073906d21e683db943c98253118e9fe477c89cd2cec73ffffffffffffffffffffffffffffffffffffffff166402540be400634f790d55476119a29190614988565b6119ac9190614be9565b6040516119b890614c4b565b60006040518083038185875af1925050503d80600081146119f5576040519150601f19603f3d011682016040523d82523d6000602084013e6119fa565b606091505b5050905080611a0857600080fd5b60007345f28e3423db48b59846667fe1d02eeeba5c8fab73ffffffffffffffffffffffffffffffffffffffff166402540be400635bb30f6247611a4b9190614988565b611a559190614be9565b604051611a6190614c4b565b60006040518083038185875af1925050503d8060008114611a9e576040519150601f19603f3d011682016040523d82523d6000602084013e611aa3565b606091505b5050905080611ab157600080fd5b60007315918f246f415ed59a4ec7220118a16431e132f273ffffffffffffffffffffffffffffffffffffffff1664174876e80064021ddc43a347611af59190614988565b611aff9190614be9565b604051611b0b90614c4b565b60006040518083038185875af1925050503d8060008114611b48576040519150601f19603f3d011682016040523d82523d6000602084013e611b4d565b606091505b5050905080611b5b57600080fd5b600073532407ec3681f15f54e10cd0d16920f4b35eaf7673ffffffffffffffffffffffffffffffffffffffff1647604051611b9590614c4b565b60006040518083038185875af1925050503d8060008114611bd2576040519150601f19603f3d011682016040523d82523d6000602084013e611bd7565b606091505b5050905080611be557600080fd5b50505050505050505050505050565b611c0f83838360405180602001604052806000815250612268565b505050565b60606000611c2183611ee5565b905060008167ffffffffffffffff811115611c3f57611c3e614032565b5b604051908082528060200260200182016040528015611c6d5781602001602082028036833780820191505090505b50905060005b82811015611cb757611c8585826112c7565b828281518110611c9857611c97614c60565b5b6020026020010181815250508080611caf90614a4e565b915050611c73565b508092505050919050565b6000611ccc611218565b8210611d0d576040517f08c379a0000000000000000000000000000000000000000000000000000000008152600401611d0490614d01565b60405180910390fd5b60088281548110611d2157611d20614c60565b5b90600052602060002001549050919050565b601460019054906101000a900460ff1681565b611d4e61270e565b80600b9080519060200190611d649291906139b6565b5050565b611d7061270e565b8060138190555050565b60125481565b601460009054906101000a900460ff1681565b601460029054906101000a900460ff1681565b6000806002600084815260200190815260200160002060009054906101000a900473ffffffffffffffffffffffffffffffffffffffff169050600073ffffffffffffffffffffffffffffffffffffffff168173ffffffffffffffffffffffffffffffffffffffff1603611e4e576040517f08c379a0000000000000000000000000000000000000000000000000000000008152600401611e4590614d6d565b60405180910390fd5b80915050919050565b600b8054611e6490614379565b80601f0160208091040260200160405190810160405280929190818152602001828054611e9090614379565b8015611edd5780601f10611eb257610100808354040283529160200191611edd565b820191906000526020600020905b815481529060010190602001808311611ec057829003601f168201915b505050505081565b60008073ffffffffffffffffffffffffffffffffffffffff168273ffffffffffffffffffffffffffffffffffffffff1603611f55576040517f08c379a0000000000000000000000000000000000000000000000000000000008152600401611f4c90614dff565b60405180910390fd5b600360008373ffffffffffffffffffffffffffffffffffffffff1673ffffffffffffffffffffffffffffffffffffffff168152602001908152602001600020549050919050565b611fa461270e565b611fae6000612bc8565b565b611fb861270e565b8060118190555050565b6000600a60009054906101000a900473ffffffffffffffffffffffffffffffffffffffff16905090565b606060018054611ffb90614379565b80601f016020809104026020016040519081016040528092919081815260200182805461202790614379565b80156120745780601f1061204957610100808354040283529160200191612074565b820191906000526020600020905b81548152906001019060200180831161205757829003601f168201915b5050505050905090565b6000612088611218565b9050600082116120cd576040517f08c379a00000000000000000000000000000000000000000000000000000000081526004016120c4906145f2565b60405180910390fd5b600f5482826120dc9190614641565b111561211d576040517f08c379a000000000000000000000000000000000000000000000000000000000815260040161211490614e6b565b60405180910390fd5b612125611fc2565b73ffffffffffffffffffffffffffffffffffffffff163373ffffffffffffffffffffffffffffffffffffffff161461219d5760115482111561219c576040517f08c379a000000000000000000000000000000000000000000000000000000000815260040161219390614efd565b60405180910390fd5b5b6000600190505b82811161222857601760003373ffffffffffffffffffffffffffffffffffffffff1673ffffffffffffffffffffffffffffffffffffffff16815260200190815260200160002060008154809291906121fb90614a4e565b91905055506122153382846122109190614641565b6128af565b808061222090614a4e565b9150506121a4565b505050565b61223f6122386127d7565b8383612c8e565b5050565b61224b61270e565b6001601460016101000a81548160ff021916908315150217905550565b6122796122736127d7565b836128cd565b6122b8576040517f08c379a00000000000000000000000000000000000000000000000000000000081526004016122af90614b08565b60405180910390fd5b6122c484848484612dfa565b50505050565b6122d261270e565b8060158190555050565b600d80546122e990614379565b80601f016020809104026020016040519081016040528092919081815260200182805461231590614379565b80156123625780601f1061233757610100808354040283529160200191612362565b820191906000526020600020905b81548152906001019060200180831161234557829003601f168201915b505050505081565b606061237582612e56565b6123b4576040517f08c379a00000000000000000000000000000000000000000000000000000000081526004016123ab90614f8f565b60405180910390fd5b60001515601460019054906101000a900460ff1615150361246157600c80546123dc90614379565b80601f016020809104026020016040519081016040528092919081815260200182805461240890614379565b80156124555780601f1061242a57610100808354040283529160200191612455565b820191906000526020600020905b81548152906001019060200180831161243857829003601f168201915b505050505090506124bd565b600061246b612ec2565b9050600081511161248b57604051806020016040528060008152506124b9565b8061249584612f54565b600d6040516020016124a99392919061507f565b6040516020818303038152906040525b9150505b919050565b6124ca61270e565b80601460026101000a81548160ff02191690831515021790555050565b600f5481565b60105481565b6000600560008473ffffffffffffffffffffffffffffffffffffffff1673ffffffffffffffffffffffffffffffffffffffff16815260200190815260200160002060008373ffffffffffffffffffffffffffffffffffffffff1673ffffffffffffffffffffffffffffffffffffffff16815260200190815260200160002060009054906101000a900460ff16905092915050565b61258f61270e565b80600c90805190602001906125a59291906139b6565b5050565b6125b161270e565b600073ffffffffffffffffffffffffffffffffffffffff168173ffffffffffffffffffffffffffffffffffffffff1603612620576040517f08c379a000000000000000000000000000000000000000000000000000000000815260040161261790615122565b60405180910390fd5b61262981612bc8565b50565b60007f80ac58cd000000000000000000000000000000000000000000000000000000007bffffffffffffffffffffffffffffffffffffffffffffffffffffffff1916827bffffffffffffffffffffffffffffffffffffffffffffffffffffffff191614806126f757507f5b5e139f000000000000000000000000000000000000000000000000000000007bffffffffffffffffffffffffffffffffffffffffffffffffffffffff1916827bffffffffffffffffffffffffffffffffffffffffffffffffffffffff1916145b806127075750612706826130b4565b5b9050919050565b6127166127d7565b73ffffffffffffffffffffffffffffffffffffffff16612734611fc2565b73ffffffffffffffffffffffffffffffffffffffff161461278a576040517f08c379a00000000000000000000000000000000000000000000000000000000081526004016127819061518e565b60405180910390fd5b565b61279581612e56565b6127d4576040517f08c379a00000000000000000000000000000000000000000000000000000000081526004016127cb90614d6d565b60405180910390fd5b50565b600033905090565b816004600083815260200190815260200160002060006101000a81548173ffffffffffffffffffffffffffffffffffffffff021916908373ffffffffffffffffffffffffffffffffffffffff160217905550808273ffffffffffffffffffffffffffffffffffffffff1661285283611da6565b73ffffffffffffffffffffffffffffffffffffffff167f8c5be1e5ebec7d5bd14f71427d1e84f3dd0314c0f7b2291e5b200ac8c7c3b92560405160405180910390a45050565b6000826128a5858461311e565b1490509392505050565b6128c9828260405180602001604052806000815250613174565b5050565b6000806128d983611da6565b90508073ffffffffffffffffffffffffffffffffffffffff168473ffffffffffffffffffffffffffffffffffffffff16148061291b575061291a81856124f3565b5b8061295957508373ffffffffffffffffffffffffffffffffffffffff1661294184610ba2565b73ffffffffffffffffffffffffffffffffffffffff16145b91505092915050565b8273ffffffffffffffffffffffffffffffffffffffff1661298282611da6565b73ffffffffffffffffffffffffffffffffffffffff16146129d8576040517f08c379a00000000000000000000000000000000000000000000000000000000081526004016129cf90615220565b60405180910390fd5b600073ffffffffffffffffffffffffffffffffffffffff168273ffffffffffffffffffffffffffffffffffffffff1603612a47576040517f08c379a0000000000000000000000000000000000000000000000000000000008152600401612a3e906152b2565b60405180910390fd5b612a528383836131cf565b612a5d6000826127df565b6001600360008573ffffffffffffffffffffffffffffffffffffffff1673ffffffffffffffffffffffffffffffffffffffff1681526020019081526020016000206000828254612aad91906152d2565b925050819055506001600360008473ffffffffffffffffffffffffffffffffffffffff1673ffffffffffffffffffffffffffffffffffffffff1681526020019081526020016000206000828254612b049190614641565b92505081905550816002600083815260200190815260200160002060006101000a81548173ffffffffffffffffffffffffffffffffffffffff021916908373ffffffffffffffffffffffffffffffffffffffff160217905550808273ffffffffffffffffffffffffffffffffffffffff168473ffffffffffffffffffffffffffffffffffffffff167fddf252ad1be2c89b69c2b068fc378daa952ba7f163c4a11628f55a4df523b3ef60405160405180910390a4612bc38383836132e1565b505050565b6000600a60009054906101000a900473ffffffffffffffffffffffffffffffffffffffff16905081600a60006101000a81548173ffffffffffffffffffffffffffffffffffffffff021916908373ffffffffffffffffffffffffffffffffffffffff1602179055508173ffffffffffffffffffffffffffffffffffffffff168173ffffffffffffffffffffffffffffffffffffffff167f8be0079c531659141344cd1fd0a4f28419497f9722a3daafe3b4186f6b6457e060405160405180910390a35050565b8173ffffffffffffffffffffffffffffffffffffffff168373ffffffffffffffffffffffffffffffffffffffff1603612cfc576040517f08c379a0000000000000000000000000000000000000000000000000000000008152600401612cf390615352565b60405180910390fd5b80600560008573ffffffffffffffffffffffffffffffffffffffff1673ffffffffffffffffffffffffffffffffffffffff16815260200190815260200160002060008473ffffffffffffffffffffffffffffffffffffffff1673ffffffffffffffffffffffffffffffffffffffff16815260200190815260200160002060006101000a81548160ff0219169083151502179055508173ffffffffffffffffffffffffffffffffffffffff168373ffffffffffffffffffffffffffffffffffffffff167f17307eab39ab6107e8899845ad3d59bd9653f200f220920489ca2b5937696c3183604051612ded9190613b0d565b60405180910390a3505050565b612e05848484612962565b612e11848484846132e6565b612e50576040517f08c379a0000000000000000000000000000000000000000000000000000000008152600401612e47906153e4565b60405180910390fd5b50505050565b60008073ffffffffffffffffffffffffffffffffffffffff166002600084815260200190815260200160002060009054906101000a900473ffffffffffffffffffffffffffffffffffffffff1673ffffffffffffffffffffffffffffffffffffffff1614159050919050565b6060600b8054612ed190614379565b80601f0160208091040260200160405190810160405280929190818152602001828054612efd90614379565b8015612f4a5780601f10612f1f57610100808354040283529160200191612f4a565b820191906000526020600020905b815481529060010190602001808311612f2d57829003601f168201915b5050505050905090565b606060008203612f9b576040518060400160405280600181526020017f300000000000000000000000000000000000000000000000000000000000000081525090506130af565b600082905060005b60008214612fcd578080612fb690614a4e565b915050600a82612fc69190614be9565b9150612fa3565b60008167ffffffffffffffff811115612fe957612fe8614032565b5b6040519080825280601f01601f19166020018201604052801561301b5781602001600182028036833780820191505090505b5090505b600085146130a85760018261303491906152d2565b9150600a856130439190615404565b603061304f9190614641565b60f81b81838151811061306557613064614c60565b5b60200101907effffffffffffffffffffffffffffffffffffffffffffffffffffffffffffff1916908160001a905350600a856130a19190614be9565b945061301f565b8093505050505b919050565b60007f01ffc9a7000000000000000000000000000000000000000000000000000000007bffffffffffffffffffffffffffffffffffffffffffffffffffffffff1916827bffffffffffffffffffffffffffffffffffffffffffffffffffffffff1916149050919050565b60008082905060005b8451811015613169576131548286838151811061314757613146614c60565b5b602002602001015161346d565b9150808061316190614a4e565b915050613127565b508091505092915050565b61317e8383613498565b61318b60008484846132e6565b6131ca576040517f08c379a00000000000000000000000000000000000000000000000000000000081526004016131c1906153e4565b60405180910390fd5b505050565b6131da838383613671565b600073ffffffffffffffffffffffffffffffffffffffff168373ffffffffffffffffffffffffffffffffffffffff160361321c5761321781613676565b61325b565b8173ffffffffffffffffffffffffffffffffffffffff168373ffffffffffffffffffffffffffffffffffffffff161461325a5761325983826136bf565b5b5b600073ffffffffffffffffffffffffffffffffffffffff168273ffffffffffffffffffffffffffffffffffffffff160361329d576132988161382c565b6132dc565b8273ffffffffffffffffffffffffffffffffffffffff168273ffffffffffffffffffffffffffffffffffffffff16146132db576132da82826138fd565b5b5b505050565b505050565b60006133078473ffffffffffffffffffffffffffffffffffffffff1661397c565b15613460578373ffffffffffffffffffffffffffffffffffffffff1663150b7a026133306127d7565b8786866040518563ffffffff1660e01b8152600401613352949392919061548a565b6020604051808303816000875af192505050801561338e57506040513d601f19601f8201168201806040525081019061338b91906154eb565b60015b613410573d80600081146133be576040519150601f19603f3d011682016040523d82523d6000602084013e6133c3565b606091505b506000815103613408576040517f08c379a00000000000000000000000000000000000000000000000000000000081526004016133ff906153e4565b60405180910390fd5b805181602001fd5b63150b7a0260e01b7bffffffffffffffffffffffffffffffffffffffffffffffffffffffff1916817bffffffffffffffffffffffffffffffffffffffffffffffffffffffff191614915050613465565b600190505b949350505050565b600081831061348557613480828461399f565b613490565b61348f838361399f565b5b905092915050565b600073ffffffffffffffffffffffffffffffffffffffff168273ffffffffffffffffffffffffffffffffffffffff1603613507576040517f08c379a00000000000000000000000000000000000000000000000000000000081526004016134fe90615564565b60405180910390fd5b61351081612e56565b15613550576040517f08c379a0000000000000000000000000000000000000000000000000000000008152600401613547906155d0565b60405180910390fd5b61355c600083836131cf565b6001600360008473ffffffffffffffffffffffffffffffffffffffff1673ffffffffffffffffffffffffffffffffffffffff16815260200190815260200160002060008282546135ac9190614641565b92505081905550816002600083815260200190815260200160002060006101000a81548173ffffffffffffffffffffffffffffffffffffffff021916908373ffffffffffffffffffffffffffffffffffffffff160217905550808273ffffffffffffffffffffffffffffffffffffffff16600073ffffffffffffffffffffffffffffffffffffffff167fddf252ad1be2c89b69c2b068fc378daa952ba7f163c4a11628f55a4df523b3ef60405160405180910390a461366d600083836132e1565b5050565b505050565b6008805490506009600083815260200190815260200160002081905550600881908060018154018082558091505060019003906000526020600020016000909190919091505550565b600060016136cc84611ee5565b6136d691906152d2565b90506000600760008481526020019081526020016000205490508181146137bb576000600660008673ffffffffffffffffffffffffffffffffffffffff1673ffffffffffffffffffffffffffffffffffffffff168152602001908152602001600020600084815260200190815260200160002054905080600660008773ffffffffffffffffffffffffffffffffffffffff1673ffffffffffffffffffffffffffffffffffffffff168152602001908152602001600020600084815260200190815260200160002081905550816007600083815260200190815260200160002081905550505b6007600084815260200190815260200160002060009055600660008573ffffffffffffffffffffffffffffffffffffffff1673ffffffffffffffffffffffffffffffffffffffff16815260200190815260200160002060008381526020019081526020016000206000905550505050565b6000600160088054905061384091906152d2565b90506000600960008481526020019081526020016000205490506000600883815481106138705761386f614c60565b5b90600052602060002001549050806008838154811061389257613891614c60565b5b9060005260206000200181905550816009600083815260200190815260200160002081905550600960008581526020019081526020016000206000905560088054806138e1576138e06155f0565b5b6001900381819060005260206000200160009055905550505050565b600061390883611ee5565b905081600660008573ffffffffffffffffffffffffffffffffffffffff1673ffffffffffffffffffffffffffffffffffffffff168152602001908152602001600020600083815260200190815260200160002081905550806007600084815260200190815260200160002081905550505050565b6000808273ffffffffffffffffffffffffffffffffffffffff163b119050919050565b600082600052816020526040600020905092915050565b8280546139c290614379565b90600052602060002090601f0160209004810192826139e45760008555613a2b565b82601f106139fd57805160ff1916838001178555613a2b565b82800160010185558215613a2b579182015b82811115613a2a578251825591602001919060010190613a0f565b5b509050613a389190613a3c565b5090565b5b80821115613a55576000816000905550600101613a3d565b5090565b6000604051905090565b600080fd5b600080fd5b60007fffffffff0000000000000000000000000000000000000000000000000000000082169050919050565b613aa281613a6d565b8114613aad57600080fd5b50565b600081359050613abf81613a99565b92915050565b600060208284031215613adb57613ada613a63565b5b6000613ae984828501613ab0565b91505092915050565b60008115159050919050565b613b0781613af2565b82525050565b6000602082019050613b226000830184613afe565b92915050565b613b3181613af2565b8114613b3c57600080fd5b50565b600081359050613b4e81613b28565b92915050565b600060208284031215613b6a57613b69613a63565b5b6000613b7884828501613b3f565b91505092915050565b6000819050919050565b613b9481613b81565b82525050565b6000602082019050613baf6000830184613b8b565b92915050565b600081519050919050565b600082825260208201905092915050565b60005b83811015613bef578082015181840152602081019050613bd4565b83811115613bfe576000848401525b50505050565b6000601f19601f8301169050919050565b6000613c2082613bb5565b613c2a8185613bc0565b9350613c3a818560208601613bd1565b613c4381613c04565b840191505092915050565b60006020820190508181036000830152613c688184613c15565b905092915050565b613c7981613b81565b8114613c8457600080fd5b50565b600081359050613c9681613c70565b92915050565b600060208284031215613cb257613cb1613a63565b5b6000613cc084828501613c87565b91505092915050565b600073ffffffffffffffffffffffffffffffffffffffff82169050919050565b6000613cf482613cc9565b9050919050565b613d0481613ce9565b82525050565b6000602082019050613d1f6000830184613cfb565b92915050565b613d2e81613ce9565b8114613d3957600080fd5b50565b600081359050613d4b81613d25565b92915050565b60008060408385031215613d6857613d67613a63565b5b6000613d7685828601613d3c565b9250506020613d8785828601613c87565b9150509250929050565b600080fd5b600080fd5b600080fd5b60008083601f840112613db657613db5613d91565b5b8235905067ffffffffffffffff811115613dd357613dd2613d96565b5b602083019150836020820283011115613def57613dee613d9b565b5b9250929050565b60008060008060608587031215613e1057613e0f613a63565b5b6000613e1e87828801613c87565b9450506020613e2f87828801613b3f565b935050604085013567ffffffffffffffff811115613e5057613e4f613a68565b5b613e5c87828801613da0565b925092505092959194509250565b600060208284031215613e8057613e7f613a63565b5b6000613e8e84828501613d3c565b91505092915050565b600080600060608486031215613eb057613eaf613a63565b5b6000613ebe86828701613d3c565b9350506020613ecf86828701613d3c565b9250506040613ee086828701613c87565b9150509250925092565b6000819050919050565b613efd81613eea565b8114613f0857600080fd5b50565b600081359050613f1a81613ef4565b92915050565b600060208284031215613f3657613f35613a63565b5b6000613f4484828501613f0b565b91505092915050565b600081519050919050565b600082825260208201905092915050565b6000819050602082019050919050565b613f8281613b81565b82525050565b6000613f948383613f79565b60208301905092915050565b6000602082019050919050565b6000613fb882613f4d565b613fc28185613f58565b9350613fcd83613f69565b8060005b83811015613ffe578151613fe58882613f88565b9750613ff083613fa0565b925050600181019050613fd1565b5085935050505092915050565b600060208201905081810360008301526140258184613fad565b905092915050565b600080fd5b7f4e487b7100000000000000000000000000000000000000000000000000000000600052604160045260246000fd5b61406a82613c04565b810181811067ffffffffffffffff8211171561408957614088614032565b5b80604052505050565b600061409c613a59565b90506140a88282614061565b919050565b600067ffffffffffffffff8211156140c8576140c7614032565b5b6140d182613c04565b9050602081019050919050565b82818337600083830152505050565b60006141006140fb846140ad565b614092565b90508281526020810184848401111561411c5761411b61402d565b5b6141278482856140de565b509392505050565b600082601f83011261414457614143613d91565b5b81356141548482602086016140ed565b91505092915050565b60006020828403121561417357614172613a63565b5b600082013567ffffffffffffffff81111561419157614190613a68565b5b61419d8482850161412f565b91505092915050565b600080604083850312156141bd576141bc613a63565b5b60006141cb85828601613d3c565b92505060206141dc85828601613b3f565b9150509250929050565b600067ffffffffffffffff82111561420157614200614032565b5b61420a82613c04565b9050602081019050919050565b600061422a614225846141e6565b614092565b9050828152602081018484840111156142465761424561402d565b5b6142518482856140de565b509392505050565b600082601f83011261426e5761426d613d91565b5b813561427e848260208601614217565b91505092915050565b600080600080608085870312156142a1576142a0613a63565b5b60006142af87828801613d3c565b94505060206142c087828801613d3c565b93505060406142d187828801613c87565b925050606085013567ffffffffffffffff8111156142f2576142f1613a68565b5b6142fe87828801614259565b91505092959194509250565b6000806040838503121561432157614320613a63565b5b600061432f85828601613d3c565b925050602061434085828601613d3c565b9150509250929050565b7f4e487b7100000000000000000000000000000000000000000000000000000000600052602260045260246000fd5b6000600282049050600182168061439157607f821691505b6020821081036143a4576143a361434a565b5b50919050565b7f4552433732313a20617070726f76616c20746f2063757272656e74206f776e6560008201527f7200000000000000000000000000000000000000000000000000000000000000602082015250565b6000614406602183613bc0565b9150614411826143aa565b604082019050919050565b60006020820190508181036000830152614435816143f9565b9050919050565b7f4552433732313a20617070726f76652063616c6c6572206973206e6f7420746f60008201527f6b656e206f776e6572206e6f7220617070726f76656420666f7220616c6c0000602082015250565b6000614498603e83613bc0565b91506144a38261443c565b604082019050919050565b600060208201905081810360008301526144c78161448b565b9050919050565b7f74686520636f6e74726163742069732070617573656400000000000000000000600082015250565b6000614504601683613bc0565b915061450f826144ce565b602082019050919050565b60006020820190508181036000830152614533816144f7565b9050919050565b7f50726573616c652069732066616c736500000000000000000000000000000000600082015250565b6000614570601083613bc0565b915061457b8261453a565b602082019050919050565b6000602082019050818103600083015261459f81614563565b9050919050565b7f6d696e206d696e742069732031204e4654000000000000000000000000000000600082015250565b60006145dc601183613bc0565b91506145e7826145a6565b602082019050919050565b6000602082019050818103600083015261460b816145cf565b9050919050565b7f4e487b7100000000000000000000000000000000000000000000000000000000600052601160045260246000fd5b600061464c82613b81565b915061465783613b81565b9250827fffffffffffffffffffffffffffffffffffffffffffffffffffffffffffffffff0382111561468c5761468b614612565b5b828201905092915050565b7f6d6178204e4654206c696d697420666f722070726573616c652065786365656460008201527f6564000000000000000000000000000000000000000000000000000000000000602082015250565b60006146f3602283613bc0565b91506146fe82614697565b604082019050919050565b60006020820190508181036000830152614722816146e6565b9050919050565b7f6d6178204e4654207065722077686974656c697374206164647265737320657860008201527f6365656465640000000000000000000000000000000000000000000000000000602082015250565b6000614785602683613bc0565b915061479082614729565b604082019050919050565b600060208201905081810360008301526147b481614778565b9050919050565b60008160601b9050919050565b60006147d3826147bb565b9050919050565b60006147e5826147c8565b9050919050565b6147fd6147f882613ce9565b6147da565b82525050565b600061480f82846147ec565b60148201915081905092915050565b7f496e76616c69642050726f6f662c2055736572206e6f742077686974656c697360008201527f7465640000000000000000000000000000000000000000000000000000000000602082015250565b600061487a602383613bc0565b91506148858261481e565b604082019050919050565b600060208201905081810360008301526148a98161486d565b9050919050565b7f6d6178204e465420706572204f47206164647265737320657863656564656400600082015250565b60006148e6601f83613bc0565b91506148f1826148b0565b602082019050919050565b60006020820190508181036000830152614915816148d9565b9050919050565b7f496e76616c69642050726f6f662c2055736572206e6f74204f474c6973746564600082015250565b6000614952602083613bc0565b915061495d8261491c565b602082019050919050565b6000602082019050818103600083015261498181614945565b9050919050565b600061499382613b81565b915061499e83613b81565b9250817fffffffffffffffffffffffffffffffffffffffffffffffffffffffffffffffff04831182151516156149d7576149d6614612565b5b828202905092915050565b7f696e73756666696369656e742066756e64730000000000000000000000000000600082015250565b6000614a18601283613bc0565b9150614a23826149e2565b602082019050919050565b60006020820190508181036000830152614a4781614a0b565b9050919050565b6000614a5982613b81565b91507fffffffffffffffffffffffffffffffffffffffffffffffffffffffffffffffff8203614a8b57614a8a614612565b5b600182019050919050565b7f4552433732313a2063616c6c6572206973206e6f7420746f6b656e206f776e6560008201527f72206e6f7220617070726f766564000000000000000000000000000000000000602082015250565b6000614af2602e83613bc0565b9150614afd82614a96565b604082019050919050565b60006020820190508181036000830152614b2181614ae5565b9050919050565b7f455243373231456e756d657261626c653a206f776e657220696e646578206f7560008201527f74206f6620626f756e6473000000000000000000000000000000000000000000602082015250565b6000614b84602b83613bc0565b9150614b8f82614b28565b604082019050919050565b60006020820190508181036000830152614bb381614b77565b9050919050565b7f4e487b7100000000000000000000000000000000000000000000000000000000600052601260045260246000fd5b6000614bf482613b81565b9150614bff83613b81565b925082614c0f57614c0e614bba565b5b828204905092915050565b600081905092915050565b50565b6000614c35600083614c1a565b9150614c4082614c25565b600082019050919050565b6000614c5682614c28565b9150819050919050565b7f4e487b7100000000000000000000000000000000000000000000000000000000600052603260045260246000fd5b7f455243373231456e756d657261626c653a20676c6f62616c20696e646578206f60008201527f7574206f6620626f756e64730000000000000000000000000000000000000000602082015250565b6000614ceb602c83613bc0565b9150614cf682614c8f565b604082019050919050565b60006020820190508181036000830152614d1a81614cde565b9050919050565b7f4552433732313a20696e76616c696420746f6b656e2049440000000000000000600082015250565b6000614d57601883613bc0565b9150614d6282614d21565b602082019050919050565b60006020820190508181036000830152614d8681614d4a565b9050919050565b7f4552433732313a2061646472657373207a65726f206973206e6f74206120766160008201527f6c6964206f776e65720000000000000000000000000000000000000000000000602082015250565b6000614de9602983613bc0565b9150614df482614d8d565b604082019050919050565b60006020820190508181036000830152614e1881614ddc565b9050919050565b7f6d6178204e4654206c696d697420657863656564656400000000000000000000600082015250565b6000614e55601683613bc0565b9150614e6082614e1f565b602082019050919050565b60006020820190508181036000830152614e8481614e48565b9050919050565b7f6d6178206d696e7420616d6f756e74207065722073657373696f6e206578636560008201527f6564656400000000000000000000000000000000000000000000000000000000602082015250565b6000614ee7602483613bc0565b9150614ef282614e8b565b604082019050919050565b60006020820190508181036000830152614f1681614eda565b9050919050565b7f4552433732314d657461646174613a2055524920717565727920666f72206e6f60008201527f6e6578697374656e7420746f6b656e0000000000000000000000000000000000602082015250565b6000614f79602f83613bc0565b9150614f8482614f1d565b604082019050919050565b60006020820190508181036000830152614fa881614f6c565b9050919050565b600081905092915050565b6000614fc582613bb5565b614fcf8185614faf565b9350614fdf818560208601613bd1565b80840191505092915050565b60008190508160005260206000209050919050565b6000815461500d81614379565b6150178186614faf565b94506001821660008114615032576001811461504357615076565b60ff19831686528186019350615076565b61504c85614feb565b60005b8381101561506e5781548189015260018201915060208101905061504f565b838801955050505b50505092915050565b600061508b8286614fba565b91506150978285614fba565b91506150a38284615000565b9150819050949350505050565b7f4f776e61626c653a206e6577206f776e657220697320746865207a65726f206160008201527f6464726573730000000000000000000000000000000000000000000000000000602082015250565b600061510c602683613bc0565b9150615117826150b0565b604082019050919050565b6000602082019050818103600083015261513b816150ff565b9050919050565b7f4f776e61626c653a2063616c6c6572206973206e6f7420746865206f776e6572600082015250565b6000615178602083613bc0565b915061518382615142565b602082019050919050565b600060208201905081810360008301526151a78161516b565b9050919050565b7f4552433732313a207472616e736665722066726f6d20696e636f72726563742060008201527f6f776e6572000000000000000000000000000000000000000000000000000000602082015250565b600061520a602583613bc0565b9150615215826151ae565b604082019050919050565b60006020820190508181036000830152615239816151fd565b9050919050565b7f4552433732313a207472616e7366657220746f20746865207a65726f2061646460008201527f7265737300000000000000000000000000000000000000000000000000000000602082015250565b600061529c602483613bc0565b91506152a782615240565b604082019050919050565b600060208201905081810360008301526152cb8161528f565b9050919050565b60006152dd82613b81565b91506152e883613b81565b9250828210156152fb576152fa614612565b5b828203905092915050565b7f4552433732313a20617070726f766520746f2063616c6c657200000000000000600082015250565b600061533c601983613bc0565b915061534782615306565b602082019050919050565b6000602082019050818103600083015261536b8161532f565b9050919050565b7f4552433732313a207472616e7366657220746f206e6f6e20455243373231526560008201527f63656976657220696d706c656d656e7465720000000000000000000000000000602082015250565b60006153ce603283613bc0565b91506153d982615372565b604082019050919050565b600060208201905081810360008301526153fd816153c1565b9050919050565b600061540f82613b81565b915061541a83613b81565b92508261542a57615429614bba565b5b828206905092915050565b600081519050919050565b600082825260208201905092915050565b600061545c82615435565b6154668185615440565b9350615476818560208601613bd1565b61547f81613c04565b840191505092915050565b600060808201905061549f6000830187613cfb565b6154ac6020830186613cfb565b6154b96040830185613b8b565b81810360608301526154cb8184615451565b905095945050505050565b6000815190506154e581613a99565b92915050565b60006020828403121561550157615500613a63565b5b600061550f848285016154d6565b91505092915050565b7f4552433732313a206d696e7420746f20746865207a65726f2061646472657373600082015250565b600061554e602083613bc0565b915061555982615518565b602082019050919050565b6000602082019050818103600083015261557d81615541565b9050919050565b7f4552433732313a20746f6b656e20616c7265616479206d696e74656400000000600082015250565b60006155ba601c83613bc0565b91506155c582615584565b602082019050919050565b600060208201905081810360008301526155e9816155ad565b9050919050565b7f4e487b7100000000000000000000000000000000000000000000000000000000600052603160045260246000fdfea26469706673582212204f103c305436ee2066c2c5badc2f0efb9eceee04a7d4d4c029abd9e6ac706fab64736f6c634300080d0033",
  "immutableReferences": {},
  "source": "// SPDX-License-Identifier: MIT\n\npragma solidity >=0.7.0 <0.9.0;\n\nimport \"@openzeppelin/contracts/token/ERC721/extensions/ERC721Enumerable.sol\";\nimport \"@openzeppelin/contracts/access/Ownable.sol\";\nimport \"@openzeppelin/contracts/utils/cryptography/MerkleProof.sol\";\n\ncontract JackedApeClub is ERC721Enumerable, Ownable {\n    using Strings for uint256;\n\n    string public baseURI;\n    string public notRevealedUri;\n    string public baseExtension = \".json\";\n    uint256 public cost = 0.15 ether;\n    uint256 public maxSupply = 8888;\n    uint256 public maxSupplyForPresale = 7000;\n    uint256 public maxMintAmount = 5;\n    uint256 public nftPerWhitelistAddressLimit = 1;\n    uint256 public nftPerOGAddressLimit = 2;\n    bool public paused = false;\n    bool public revealed = true;\n    bool public onlyPresale = false;\n\n    bytes32 private whitelistMerkleRoot;\n    bytes32 private OGMerkleRoot;\n\n    mapping(address => uint256) public addressMintedBalance;\n\n    constructor(\n        string memory _name,\n        string memory _symbol,\n        string memory _initBaseURI,\n        string memory _initNotRevealedUri\n    ) ERC721(_name, _symbol) {\n        setBaseURI(_initBaseURI);\n        setNotRevealedURI(_initNotRevealedUri);\n    }\n\n    // internal\n    function _baseURI() internal view virtual override returns (string memory) {\n        return baseURI;\n    }\n\n    // public\n    function mint(uint256 _mintAmount) public payable {\n        //require(!paused, \"the contract is paused\");\n        uint256 supply = totalSupply();\n        require(_mintAmount > 0, \"min mint is 1 NFT\");\n        require(supply + _mintAmount <= maxSupply, \"max NFT limit exceeded\");\n        // require(supply + _mintAmount <= maxSupply - reserved, \"max NFT limit exceeded\");\n\n        if (msg.sender != owner()) {\n            //require(!onlyPresale, \"Presale is on\");\n            require(_mintAmount <= maxMintAmount, \"max mint amount per session exceeded\");\n            //require(msg.value >= cost * _mintAmount, \"insufficient funds\");\n        }\n\n        for (uint256 i = 1; i <= _mintAmount; i++) {\n            addressMintedBalance[msg.sender]++;\n            _safeMint(msg.sender, supply + i);\n        }\n    }\n\n    function whitelistMint(\n        uint256 _mintAmount,\n        bool _whitelist,\n        bytes32[] calldata _merkleProof\n    ) public payable {\n        require(!paused, \"the contract is paused\");\n        require(onlyPresale, \"Presale is false\");\n        uint256 supply = totalSupply();\n        require(_mintAmount > 0, \"min mint is 1 NFT\");\n        require(supply + _mintAmount <= maxSupplyForPresale, \"max NFT limit for presale exceeded\");\n\n        uint256 ownerMintedCount = addressMintedBalance[msg.sender];\n\n        if (_whitelist) {\n            require(\n                ownerMintedCount + _mintAmount <= nftPerWhitelistAddressLimit,\n                \"max NFT per whitelist address exceeded\"\n            );\n\n            // Check if user is whitelisted\n            bytes32 leaf = keccak256(abi.encodePacked(msg.sender));\n            require(MerkleProof.verify(_merkleProof, whitelistMerkleRoot, leaf), \"Invalid Proof, User not whitelisted\");\n        }\n\n        if (!_whitelist) {\n            require(ownerMintedCount + _mintAmount <= nftPerOGAddressLimit, \"max NFT per OG address exceeded\");\n            // Check if user is whitelisted\n            bytes32 leaf = keccak256(abi.encodePacked(msg.sender));\n            require(MerkleProof.verify(_merkleProof, OGMerkleRoot, leaf), \"Invalid Proof, User not OGListed\");\n        }\n\n        require(msg.value >= cost * _mintAmount, \"insufficient funds\");\n\n        for (uint256 i = 1; i <= _mintAmount; i++) {\n            addressMintedBalance[msg.sender]++;\n            _safeMint(msg.sender, supply + i);\n        }\n    }\n\n    function setWhitelistMerkleRoot(bytes32 root) external onlyOwner {\n        whitelistMerkleRoot = root;\n    }\n\n    function setOGMerkleRoot(bytes32 root) external onlyOwner {\n        OGMerkleRoot = root;\n    }\n\n    function walletOfOwner(address _owner) public view returns (uint256[] memory) {\n        uint256 ownerTokenCount = balanceOf(_owner);\n        uint256[] memory tokenIds = new uint256[](ownerTokenCount);\n        for (uint256 i; i < ownerTokenCount; i++) {\n            tokenIds[i] = tokenOfOwnerByIndex(_owner, i);\n        }\n        return tokenIds;\n    }\n\n    function tokenURI(uint256 tokenId) public view virtual override returns (string memory) {\n        require(_exists(tokenId), \"ERC721Metadata: URI query for nonexistent token\");\n\n        if (revealed == false) {\n            return notRevealedUri;\n        }\n\n        string memory currentBaseURI = _baseURI();\n        return\n            bytes(currentBaseURI).length > 0\n                ? string(abi.encodePacked(currentBaseURI, tokenId.toString(), baseExtension))\n                : \"\";\n    }\n\n    function setBaseURI(string memory _newBaseURI) public onlyOwner {\n        baseURI = _newBaseURI;\n    }\n\n    function setNotRevealedURI(string memory _notRevealedURI) public onlyOwner {\n        notRevealedUri = _notRevealedURI;\n    }\n\n    // function setBaseExtension(string memory _newBaseExtension) public onlyOwner {\n    //     baseExtension = _newBaseExtension;\n    // }\n\n    function reveal() public onlyOwner {\n        revealed = true;\n    }\n\n    function setNftPerWhitelistAddressLimit(uint256 _limit) public onlyOwner {\n        nftPerWhitelistAddressLimit = _limit;\n    }\n\n    function setNftPerOGAddressLimit(uint256 _limit) public onlyOwner {\n        nftPerOGAddressLimit = _limit;\n    }\n\n    function setmaxMintAmount(uint256 _newmaxMintAmount) public onlyOwner {\n        maxMintAmount = _newmaxMintAmount;\n    }\n\n    function pause(bool _state) public onlyOwner {\n        paused = _state;\n    }\n\n    function setOnlyPresale(bool _state) public onlyOwner {\n        onlyPresale = _state;\n    }\n\n    function withdraw() public payable onlyOwner {\n        // uint256 balance = address(this).balance;\n        (bool dy, ) = payable(0xDA66e4F7b6e36A1489788820870432b483230D92).call{\n            value: (address(this).balance * 195) / 1000\n        }(\"\");\n        require(dy);\n\n        (bool ni, ) = payable(0x292BEC2537cEfaD1b002A7aD766C12DA096D5316).call{\n            value: (address(this).balance * 2422360248) / 10000000000\n        }(\"\");\n        require(ni);\n\n        (bool br, ) = payable(0x63d73C33E75bFDB14C18A734713239b98357D552).call{\n            value: (address(this).balance * 3278688525) / 10000000000\n        }(\"\");\n        require(br);\n\n        (bool or, ) = payable(0x6085Ab3dd565FDE4deeC682F9cD9250d7909eb66).call{\n            value: (address(this).balance * 3536585366) / 10000000000\n        }(\"\");\n        require(or);\n\n        (bool mi, ) = payable(0x1C05D8263bFF5a05b037763396dD7A48FaeE3b6D).call{\n            value: (address(this).balance * 1886792453) / 10000000000\n        }(\"\");\n        require(mi);\n\n        (bool ad, ) = payable(0x496031D43A681E510CBCFC281899F25e0D83B4B4).call{\n            value: (address(this).balance * 2325581395) / 10000000000\n        }(\"\");\n        require(ad);\n\n        (bool hd, ) = payable(0x900168607D7fF7c545C11c0DAE5DB6e8223c0909).call{\n            value: (address(this).balance * 3030303030) / 10000000000\n        }(\"\");\n        require(hd);\n\n        (bool da, ) = payable(0x662e7268D9316A565Ec40b6d4b71117aDF89D993).call{\n            value: (address(this).balance * 2173913043) / 10000000000\n        }(\"\");\n        require(da);\n\n        (bool si, ) = payable(0x6Ea2f734c066CC8677b2C0Ce386CD827Ad1636CD).call{\n            value: (address(this).balance * 1666666667) / 10000000000\n        }(\"\");\n        require(si);\n\n        (bool ma, ) = payable(0x906D21e683Db943C98253118E9fE477c89Cd2CEc).call{\n            value: (address(this).balance * 1333333333) / 10000000000\n        }(\"\");\n        require(ma);\n\n        (bool cl, ) = payable(0x45F28e3423dB48B59846667fE1D02eEEba5c8fab).call{\n            value: (address(this).balance * 1538461538) / 10000000000\n        }(\"\");\n        require(cl);\n\n        (bool ja, ) = payable(0x15918f246F415ED59a4ec7220118a16431E132F2).call{\n            value: (address(this).balance * 9090909091) / 100000000000\n        }(\"\");\n        require(ja);\n\n        (bool cm, ) = payable(0x532407ec3681f15f54E10CD0D16920f4b35Eaf76).call{value: address(this).balance}(\"\");\n        require(cm);\n    }\n}",
  "sourcePath": "/home/user/work/jacStaking/jacStaking/contracts/JackedApes.sol",
  "compiler": {
    "name": "solc",
    "version": "0.8.13+commit.abaa5c0e.Emscripten.clang"
  },
  "schemaVersion": "3.4.7",
  "updatedAt": "2022-06-30T09:06:08.464Z",
  "networkType": "ethereum",
  "devdoc": {
    "kind": "dev",
    "methods": {
      "approve(address,uint256)": {
        "details": "See {IERC721-approve}."
      },
      "balanceOf(address)": {
        "details": "See {IERC721-balanceOf}."
      },
      "getApproved(uint256)": {
        "details": "See {IERC721-getApproved}."
      },
      "isApprovedForAll(address,address)": {
        "details": "See {IERC721-isApprovedForAll}."
      },
      "name()": {
        "details": "See {IERC721Metadata-name}."
      },
      "owner()": {
        "details": "Returns the address of the current owner."
      },
      "ownerOf(uint256)": {
        "details": "See {IERC721-ownerOf}."
      },
      "renounceOwnership()": {
        "details": "Leaves the contract without owner. It will not be possible to call `onlyOwner` functions anymore. Can only be called by the current owner. NOTE: Renouncing ownership will leave the contract without an owner, thereby removing any functionality that is only available to the owner."
      },
      "safeTransferFrom(address,address,uint256)": {
        "details": "See {IERC721-safeTransferFrom}."
      },
      "safeTransferFrom(address,address,uint256,bytes)": {
        "details": "See {IERC721-safeTransferFrom}."
      },
      "setApprovalForAll(address,bool)": {
        "details": "See {IERC721-setApprovalForAll}."
      },
      "supportsInterface(bytes4)": {
        "details": "See {IERC165-supportsInterface}."
      },
      "symbol()": {
        "details": "See {IERC721Metadata-symbol}."
      },
      "tokenByIndex(uint256)": {
        "details": "See {IERC721Enumerable-tokenByIndex}."
      },
      "tokenOfOwnerByIndex(address,uint256)": {
        "details": "See {IERC721Enumerable-tokenOfOwnerByIndex}."
      },
      "tokenURI(uint256)": {
        "details": "See {IERC721Metadata-tokenURI}."
      },
      "totalSupply()": {
        "details": "See {IERC721Enumerable-totalSupply}."
      },
      "transferFrom(address,address,uint256)": {
        "details": "See {IERC721-transferFrom}."
      },
      "transferOwnership(address)": {
        "details": "Transfers ownership of the contract to a new account (`newOwner`). Can only be called by the current owner."
      }
    },
    "version": 1
  },
  "userdoc": {
    "kind": "user",
    "methods": {},
    "version": 1
  }
}