{
  "contractName": "PumpTokenERC20",
  "abi": [
    {
      "inputs": [],
      "stateMutability": "nonpayable",
      "type": "constructor"
    },
    {
      "anonymous": false,
      "inputs": [
        {
          "indexed": true,
          "internalType": "address",
          "name": "owner",
          "type": "address"
        },
        {
          "indexed": true,
          "internalType": "address",
          "name": "spender",
          "type": "address"
        },
        {
          "indexed": false,
          "internalType": "uint256",
          "name": "value",
          "type": "uint256"
        }
      ],
      "name": "Approval",
      "type": "event"
    },
    {
      "anonymous": false,
      "inputs": [
        {
          "indexed": true,
          "internalType": "bytes32",
          "name": "role",
          "type": "bytes32"
        },
        {
          "indexed": true,
          "internalType": "bytes32",
          "name": "previousAdminRole",
          "type": "bytes32"
        },
        {
          "indexed": true,
          "internalType": "bytes32",
          "name": "newAdminRole",
          "type": "bytes32"
        }
      ],
      "name": "RoleAdminChanged",
      "type": "event"
    },
    {
      "anonymous": false,
      "inputs": [
        {
          "indexed": true,
          "internalType": "bytes32",
          "name": "role",
          "type": "bytes32"
        },
        {
          "indexed": true,
          "internalType": "address",
          "name": "account",
          "type": "address"
        },
        {
          "indexed": true,
          "internalType": "address",
          "name": "sender",
          "type": "address"
        }
      ],
      "name": "RoleGranted",
      "type": "event"
    },
    {
      "anonymous": false,
      "inputs": [
        {
          "indexed": true,
          "internalType": "bytes32",
          "name": "role",
          "type": "bytes32"
        },
        {
          "indexed": true,
          "internalType": "address",
          "name": "account",
          "type": "address"
        },
        {
          "indexed": true,
          "internalType": "address",
          "name": "sender",
          "type": "address"
        }
      ],
      "name": "RoleRevoked",
      "type": "event"
    },
    {
      "anonymous": false,
      "inputs": [
        {
          "indexed": true,
          "internalType": "address",
          "name": "from",
          "type": "address"
        },
        {
          "indexed": true,
          "internalType": "address",
          "name": "to",
          "type": "address"
        },
        {
          "indexed": false,
          "internalType": "uint256",
          "name": "value",
          "type": "uint256"
        }
      ],
      "name": "Transfer",
      "type": "event"
    },
    {
      "inputs": [],
      "name": "DEFAULT_ADMIN_ROLE",
      "outputs": [
        {
          "internalType": "bytes32",
          "name": "",
          "type": "bytes32"
        }
      ],
      "stateMutability": "view",
      "type": "function",
      "constant": true
    },
    {
      "inputs": [],
      "name": "MINTER_ROLE",
      "outputs": [
        {
          "internalType": "bytes32",
          "name": "",
          "type": "bytes32"
        }
      ],
      "stateMutability": "view",
      "type": "function",
      "constant": true
    },
    {
      "inputs": [
        {
          "internalType": "address",
          "name": "owner",
          "type": "address"
        },
        {
          "internalType": "address",
          "name": "spender",
          "type": "address"
        }
      ],
      "name": "allowance",
      "outputs": [
        {
          "internalType": "uint256",
          "name": "",
          "type": "uint256"
        }
      ],
      "stateMutability": "view",
      "type": "function",
      "constant": true
    },
    {
      "inputs": [
        {
          "internalType": "address",
          "name": "spender",
          "type": "address"
        },
        {
          "internalType": "uint256",
          "name": "amount",
          "type": "uint256"
        }
      ],
      "name": "approve",
      "outputs": [
        {
          "internalType": "bool",
          "name": "",
          "type": "bool"
        }
      ],
      "stateMutability": "nonpayable",
      "type": "function"
    },
    {
      "inputs": [
        {
          "internalType": "address",
          "name": "account",
          "type": "address"
        }
      ],
      "name": "balanceOf",
      "outputs": [
        {
          "internalType": "uint256",
          "name": "",
          "type": "uint256"
        }
      ],
      "stateMutability": "view",
      "type": "function",
      "constant": true
    },
    {
      "inputs": [
        {
          "internalType": "uint256",
          "name": "amount",
          "type": "uint256"
        }
      ],
      "name": "burn",
      "outputs": [],
      "stateMutability": "nonpayable",
      "type": "function"
    },
    {
      "inputs": [
        {
          "internalType": "address",
          "name": "account",
          "type": "address"
        },
        {
          "internalType": "uint256",
          "name": "amount",
          "type": "uint256"
        }
      ],
      "name": "burnFrom",
      "outputs": [],
      "stateMutability": "nonpayable",
      "type": "function"
    },
    {
      "inputs": [],
      "name": "decimals",
      "outputs": [
        {
          "internalType": "uint8",
          "name": "",
          "type": "uint8"
        }
      ],
      "stateMutability": "view",
      "type": "function",
      "constant": true
    },
    {
      "inputs": [
        {
          "internalType": "address",
          "name": "spender",
          "type": "address"
        },
        {
          "internalType": "uint256",
          "name": "subtractedValue",
          "type": "uint256"
        }
      ],
      "name": "decreaseAllowance",
      "outputs": [
        {
          "internalType": "bool",
          "name": "",
          "type": "bool"
        }
      ],
      "stateMutability": "nonpayable",
      "type": "function"
    },
    {
      "inputs": [
        {
          "internalType": "bytes32",
          "name": "role",
          "type": "bytes32"
        }
      ],
      "name": "getRoleAdmin",
      "outputs": [
        {
          "internalType": "bytes32",
          "name": "",
          "type": "bytes32"
        }
      ],
      "stateMutability": "view",
      "type": "function",
      "constant": true
    },
    {
      "inputs": [
        {
          "internalType": "bytes32",
          "name": "role",
          "type": "bytes32"
        },
        {
          "internalType": "address",
          "name": "account",
          "type": "address"
        }
      ],
      "name": "grantRole",
      "outputs": [],
      "stateMutability": "nonpayable",
      "type": "function"
    },
    {
      "inputs": [
        {
          "internalType": "bytes32",
          "name": "role",
          "type": "bytes32"
        },
        {
          "internalType": "address",
          "name": "account",
          "type": "address"
        }
      ],
      "name": "hasRole",
      "outputs": [
        {
          "internalType": "bool",
          "name": "",
          "type": "bool"
        }
      ],
      "stateMutability": "view",
      "type": "function",
      "constant": true
    },
    {
      "inputs": [
        {
          "internalType": "address",
          "name": "spender",
          "type": "address"
        },
        {
          "internalType": "uint256",
          "name": "addedValue",
          "type": "uint256"
        }
      ],
      "name": "increaseAllowance",
      "outputs": [
        {
          "internalType": "bool",
          "name": "",
          "type": "bool"
        }
      ],
      "stateMutability": "nonpayable",
      "type": "function"
    },
    {
      "inputs": [],
      "name": "name",
      "outputs": [
        {
          "internalType": "string",
          "name": "",
          "type": "string"
        }
      ],
      "stateMutability": "view",
      "type": "function",
      "constant": true
    },
    {
      "inputs": [
        {
          "internalType": "bytes32",
          "name": "role",
          "type": "bytes32"
        },
        {
          "internalType": "address",
          "name": "account",
          "type": "address"
        }
      ],
      "name": "renounceRole",
      "outputs": [],
      "stateMutability": "nonpayable",
      "type": "function"
    },
    {
      "inputs": [
        {
          "internalType": "bytes32",
          "name": "role",
          "type": "bytes32"
        },
        {
          "internalType": "address",
          "name": "account",
          "type": "address"
        }
      ],
      "name": "revokeRole",
      "outputs": [],
      "stateMutability": "nonpayable",
      "type": "function"
    },
    {
      "inputs": [
        {
          "internalType": "bytes4",
          "name": "interfaceId",
          "type": "bytes4"
        }
      ],
      "name": "supportsInterface",
      "outputs": [
        {
          "internalType": "bool",
          "name": "",
          "type": "bool"
        }
      ],
      "stateMutability": "view",
      "type": "function",
      "constant": true
    },
    {
      "inputs": [],
      "name": "symbol",
      "outputs": [
        {
          "internalType": "string",
          "name": "",
          "type": "string"
        }
      ],
      "stateMutability": "view",
      "type": "function",
      "constant": true
    },
    {
      "inputs": [],
      "name": "totalSupply",
      "outputs": [
        {
          "internalType": "uint256",
          "name": "",
          "type": "uint256"
        }
      ],
      "stateMutability": "view",
      "type": "function",
      "constant": true
    },
    {
      "inputs": [
        {
          "internalType": "address",
          "name": "to",
          "type": "address"
        },
        {
          "internalType": "uint256",
          "name": "amount",
          "type": "uint256"
        }
      ],
      "name": "transfer",
      "outputs": [
        {
          "internalType": "bool",
          "name": "",
          "type": "bool"
        }
      ],
      "stateMutability": "nonpayable",
      "type": "function"
    },
    {
      "inputs": [
        {
          "internalType": "address",
          "name": "from",
          "type": "address"
        },
        {
          "internalType": "address",
          "name": "to",
          "type": "address"
        },
        {
          "internalType": "uint256",
          "name": "amount",
          "type": "uint256"
        }
      ],
      "name": "transferFrom",
      "outputs": [
        {
          "internalType": "bool",
          "name": "",
          "type": "bool"
        }
      ],
      "stateMutability": "nonpayable",
      "type": "function"
    },
    {
      "inputs": [
        {
          "internalType": "address",
          "name": "to",
          "type": "address"
        },
        {
          "internalType": "uint256",
          "name": "amount",
          "type": "uint256"
        }
      ],
      "name": "mint",
      "outputs": [],
      "stateMutability": "nonpayable",
      "type": "function"
    }
  ],
  "bytecode": "0x60806040526a18d0bf423c03d8de000000600655600060075573def1f61772c793de0f6d9f897121646c79c1d8f5600860006101000a81548173ffffffffffffffffffffffffffffffffffffffff021916908373ffffffffffffffffffffffffffffffffffffffff16021790555073def1f61772c793de0f6d9f897121646c79c1d8f5600960006101000a81548173ffffffffffffffffffffffffffffffffffffffff021916908373ffffffffffffffffffffffffffffffffffffffff16021790555073def1f61772c793de0f6d9f897121646c79c1d8f5600a60006101000a81548173ffffffffffffffffffffffffffffffffffffffff021916908373ffffffffffffffffffffffffffffffffffffffff1602179055503480156200012457600080fd5b506040518060400160405280600481526020017f50756d70000000000000000000000000000000000000000000000000000000008152506040518060400160405280600381526020017f504d5000000000000000000000000000000000000000000000000000000000008152508160039080519060200190620001a9929190620005a9565b508060049080519060200190620001c2929190620005a9565b505050620001fb600860009054906101000a900473ffffffffffffffffffffffffffffffffffffffff16600654620002c260201b60201c565b62000231600960009054906101000a900473ffffffffffffffffffffffffffffffffffffffff16600654620002c260201b60201c565b62000275600a60009054906101000a900473ffffffffffffffffffffffffffffffffffffffff166003600654620002699190620006c1565b620002c260201b60201c565b6200028a6000801b336200043a60201b60201c565b620002bc7f9f2df0fed2c77648de5860a4cc508cd0818c85b8b8a1ab4ceeef8d981c8956a6336200043a60201b60201c565b6200086b565b600073ffffffffffffffffffffffffffffffffffffffff168273ffffffffffffffffffffffffffffffffffffffff160362000334576040517f08c379a00000000000000000000000000000000000000000000000000000000081526004016200032b906200075a565b60405180910390fd5b62000348600083836200052c60201b60201c565b80600260008282546200035c91906200077c565b92505081905550806000808473ffffffffffffffffffffffffffffffffffffffff1673ffffffffffffffffffffffffffffffffffffffff1681526020019081526020016000206000828254620003b391906200077c565b925050819055508173ffffffffffffffffffffffffffffffffffffffff16600073ffffffffffffffffffffffffffffffffffffffff167fddf252ad1be2c89b69c2b068fc378daa952ba7f163c4a11628f55a4df523b3ef836040516200041a9190620007ea565b60405180910390a362000436600083836200053160201b60201c565b5050565b6200044c82826200053660201b60201c565b620005285760016005600084815260200190815260200160002060000160008373ffffffffffffffffffffffffffffffffffffffff1673ffffffffffffffffffffffffffffffffffffffff16815260200190815260200160002060006101000a81548160ff021916908315150217905550620004cd620005a160201b60201c565b73ffffffffffffffffffffffffffffffffffffffff168173ffffffffffffffffffffffffffffffffffffffff16837f2f8788117e7eff1d82e926ec794901d17c78024a50270940304540a733656f0d60405160405180910390a45b5050565b505050565b505050565b60006005600084815260200190815260200160002060000160008373ffffffffffffffffffffffffffffffffffffffff1673ffffffffffffffffffffffffffffffffffffffff16815260200190815260200160002060009054906101000a900460ff16905092915050565b600033905090565b828054620005b79062000836565b90600052602060002090601f016020900481019282620005db576000855562000627565b82601f10620005f657805160ff191683800117855562000627565b8280016001018555821562000627579182015b828111156200062657825182559160200191906001019062000609565b5b5090506200063691906200063a565b5090565b5b80821115620006555760008160009055506001016200063b565b5090565b6000819050919050565b7f4e487b7100000000000000000000000000000000000000000000000000000000600052601260045260246000fd5b7f4e487b7100000000000000000000000000000000000000000000000000000000600052601160045260246000fd5b6000620006ce8262000659565b9150620006db8362000659565b925082620006ee57620006ed62000663565b5b828204905092915050565b600082825260208201905092915050565b7f45524332303a206d696e7420746f20746865207a65726f206164647265737300600082015250565b600062000742601f83620006f9565b91506200074f826200070a565b602082019050919050565b60006020820190508181036000830152620007758162000733565b9050919050565b6000620007898262000659565b9150620007968362000659565b9250827fffffffffffffffffffffffffffffffffffffffffffffffffffffffffffffffff03821115620007ce57620007cd62000692565b5b828201905092915050565b620007e48162000659565b82525050565b6000602082019050620008016000830184620007d9565b92915050565b7f4e487b7100000000000000000000000000000000000000000000000000000000600052602260045260246000fd5b600060028204905060018216806200084f57607f821691505b60208210810362000865576200086462000807565b5b50919050565b61255a806200087b6000396000f3fe608060405234801561001057600080fd5b50600436106101425760003560e01c806342966c68116100b8578063a217fddf1161007c578063a217fddf1461039b578063a457c2d7146103b9578063a9059cbb146103e9578063d539139314610419578063d547741f14610437578063dd62ed3e1461045357610142565b806342966c68146102e557806370a082311461030157806379cc67901461033157806391d148541461034d57806395d89b411461037d57610142565b8063248a9ca31161010a578063248a9ca3146102135780632f2ff15d14610243578063313ce5671461025f57806336568abe1461027d578063395093511461029957806340c10f19146102c957610142565b806301ffc9a71461014757806306fdde0314610177578063095ea7b31461019557806318160ddd146101c557806323b872dd146101e3575b600080fd5b610161600480360381019061015c91906117a9565b610483565b60405161016e91906117f1565b60405180910390f35b61017f6104fd565b60405161018c91906118a5565b60405180910390f35b6101af60048036038101906101aa919061195b565b61058f565b6040516101bc91906117f1565b60405180910390f35b6101cd6105b2565b6040516101da91906119aa565b60405180910390f35b6101fd60048036038101906101f891906119c5565b6105bc565b60405161020a91906117f1565b60405180910390f35b61022d60048036038101906102289190611a4e565b6105eb565b60405161023a9190611a8a565b60405180910390f35b61025d60048036038101906102589190611aa5565b61060b565b005b61026761062c565b6040516102749190611b01565b60405180910390f35b61029760048036038101906102929190611aa5565b610635565b005b6102b360048036038101906102ae919061195b565b6106b8565b6040516102c091906117f1565b60405180910390f35b6102e360048036038101906102de919061195b565b6106ef565b005b6102ff60048036038101906102fa9190611b1c565b610731565b005b61031b60048036038101906103169190611b49565b610745565b60405161032891906119aa565b60405180910390f35b61034b6004803603810190610346919061195b565b61078d565b005b61036760048036038101906103629190611aa5565b6107ad565b60405161037491906117f1565b60405180910390f35b610385610818565b60405161039291906118a5565b60405180910390f35b6103a36108aa565b6040516103b09190611a8a565b60405180910390f35b6103d360048036038101906103ce919061195b565b6108b1565b6040516103e091906117f1565b60405180910390f35b61040360048036038101906103fe919061195b565b610928565b60405161041091906117f1565b60405180910390f35b61042161094b565b60405161042e9190611a8a565b60405180910390f35b610451600480360381019061044c9190611aa5565b61096f565b005b61046d60048036038101906104689190611b76565b610990565b60405161047a91906119aa565b60405180910390f35b60007f7965db0b000000000000000000000000000000000000000000000000000000007bffffffffffffffffffffffffffffffffffffffffffffffffffffffff1916827bffffffffffffffffffffffffffffffffffffffffffffffffffffffff191614806104f657506104f582610a17565b5b9050919050565b60606003805461050c90611be5565b80601f016020809104026020016040519081016040528092919081815260200182805461053890611be5565b80156105855780601f1061055a57610100808354040283529160200191610585565b820191906000526020600020905b81548152906001019060200180831161056857829003601f168201915b5050505050905090565b60008061059a610a81565b90506105a7818585610a89565b600191505092915050565b6000600254905090565b6000806105c7610a81565b90506105d4858285610c52565b6105df858585610cde565b60019150509392505050565b600060056000838152602001908152602001600020600101549050919050565b610614826105eb565b61061d81610f5d565b6106278383610f71565b505050565b60006012905090565b61063d610a81565b73ffffffffffffffffffffffffffffffffffffffff168173ffffffffffffffffffffffffffffffffffffffff16146106aa576040517f08c379a00000000000000000000000000000000000000000000000000000000081526004016106a190611c88565b60405180910390fd5b6106b48282611052565b5050565b6000806106c3610a81565b90506106e48185856106d58589610990565b6106df9190611cd7565b610a89565b600191505092915050565b600654816007546107009190611cd7565b1061070a57600080fd5b6107148282611134565b80600760008282546107269190611cd7565b925050819055505050565b61074261073c610a81565b82611293565b50565b60008060008373ffffffffffffffffffffffffffffffffffffffff1673ffffffffffffffffffffffffffffffffffffffff168152602001908152602001600020549050919050565b61079f82610799610a81565b83610c52565b6107a98282611293565b5050565b60006005600084815260200190815260200160002060000160008373ffffffffffffffffffffffffffffffffffffffff1673ffffffffffffffffffffffffffffffffffffffff16815260200190815260200160002060009054906101000a900460ff16905092915050565b60606004805461082790611be5565b80601f016020809104026020016040519081016040528092919081815260200182805461085390611be5565b80156108a05780601f10610875576101008083540402835291602001916108a0565b820191906000526020600020905b81548152906001019060200180831161088357829003601f168201915b5050505050905090565b6000801b81565b6000806108bc610a81565b905060006108ca8286610990565b90508381101561090f576040517f08c379a000000000000000000000000000000000000000000000000000000000815260040161090690611d9f565b60405180910390fd5b61091c8286868403610a89565b60019250505092915050565b600080610933610a81565b9050610940818585610cde565b600191505092915050565b7f9f2df0fed2c77648de5860a4cc508cd0818c85b8b8a1ab4ceeef8d981c8956a681565b610978826105eb565b61098181610f5d565b61098b8383611052565b505050565b6000600160008473ffffffffffffffffffffffffffffffffffffffff1673ffffffffffffffffffffffffffffffffffffffff16815260200190815260200160002060008373ffffffffffffffffffffffffffffffffffffffff1673ffffffffffffffffffffffffffffffffffffffff16815260200190815260200160002054905092915050565b60007f01ffc9a7000000000000000000000000000000000000000000000000000000007bffffffffffffffffffffffffffffffffffffffffffffffffffffffff1916827bffffffffffffffffffffffffffffffffffffffffffffffffffffffff1916149050919050565b600033905090565b600073ffffffffffffffffffffffffffffffffffffffff168373ffffffffffffffffffffffffffffffffffffffff1603610af8576040517f08c379a0000000000000000000000000000000000000000000000000000000008152600401610aef90611e31565b60405180910390fd5b600073ffffffffffffffffffffffffffffffffffffffff168273ffffffffffffffffffffffffffffffffffffffff1603610b67576040517f08c379a0000000000000000000000000000000000000000000000000000000008152600401610b5e90611ec3565b60405180910390fd5b80600160008573ffffffffffffffffffffffffffffffffffffffff1673ffffffffffffffffffffffffffffffffffffffff16815260200190815260200160002060008473ffffffffffffffffffffffffffffffffffffffff1673ffffffffffffffffffffffffffffffffffffffff168152602001908152602001600020819055508173ffffffffffffffffffffffffffffffffffffffff168373ffffffffffffffffffffffffffffffffffffffff167f8c5be1e5ebec7d5bd14f71427d1e84f3dd0314c0f7b2291e5b200ac8c7c3b92583604051610c4591906119aa565b60405180910390a3505050565b6000610c5e8484610990565b90507fffffffffffffffffffffffffffffffffffffffffffffffffffffffffffffffff8114610cd85781811015610cca576040517f08c379a0000000000000000000000000000000000000000000000000000000008152600401610cc190611f2f565b60405180910390fd5b610cd78484848403610a89565b5b50505050565b600073ffffffffffffffffffffffffffffffffffffffff168373ffffffffffffffffffffffffffffffffffffffff1603610d4d576040517f08c379a0000000000000000000000000000000000000000000000000000000008152600401610d4490611fc1565b60405180910390fd5b600073ffffffffffffffffffffffffffffffffffffffff168273ffffffffffffffffffffffffffffffffffffffff1603610dbc576040517f08c379a0000000000000000000000000000000000000000000000000000000008152600401610db390612053565b60405180910390fd5b610dc7838383611469565b60008060008573ffffffffffffffffffffffffffffffffffffffff1673ffffffffffffffffffffffffffffffffffffffff16815260200190815260200160002054905081811015610e4d576040517f08c379a0000000000000000000000000000000000000000000000000000000008152600401610e44906120e5565b60405180910390fd5b8181036000808673ffffffffffffffffffffffffffffffffffffffff1673ffffffffffffffffffffffffffffffffffffffff16815260200190815260200160002081905550816000808573ffffffffffffffffffffffffffffffffffffffff1673ffffffffffffffffffffffffffffffffffffffff1681526020019081526020016000206000828254610ee09190611cd7565b925050819055508273ffffffffffffffffffffffffffffffffffffffff168473ffffffffffffffffffffffffffffffffffffffff167fddf252ad1be2c89b69c2b068fc378daa952ba7f163c4a11628f55a4df523b3ef84604051610f4491906119aa565b60405180910390a3610f5784848461146e565b50505050565b610f6e81610f69610a81565b611473565b50565b610f7b82826107ad565b61104e5760016005600084815260200190815260200160002060000160008373ffffffffffffffffffffffffffffffffffffffff1673ffffffffffffffffffffffffffffffffffffffff16815260200190815260200160002060006101000a81548160ff021916908315150217905550610ff3610a81565b73ffffffffffffffffffffffffffffffffffffffff168173ffffffffffffffffffffffffffffffffffffffff16837f2f8788117e7eff1d82e926ec794901d17c78024a50270940304540a733656f0d60405160405180910390a45b5050565b61105c82826107ad565b156111305760006005600084815260200190815260200160002060000160008373ffffffffffffffffffffffffffffffffffffffff1673ffffffffffffffffffffffffffffffffffffffff16815260200190815260200160002060006101000a81548160ff0219169083151502179055506110d5610a81565b73ffffffffffffffffffffffffffffffffffffffff168173ffffffffffffffffffffffffffffffffffffffff16837ff6391f5c32d9c69d2a47ea670b442974b53935d1edc7fd64eb21e047a839171b60405160405180910390a45b5050565b600073ffffffffffffffffffffffffffffffffffffffff168273ffffffffffffffffffffffffffffffffffffffff16036111a3576040517f08c379a000000000000000000000000000000000000000000000000000000000815260040161119a90612151565b60405180910390fd5b6111af60008383611469565b80600260008282546111c19190611cd7565b92505081905550806000808473ffffffffffffffffffffffffffffffffffffffff1673ffffffffffffffffffffffffffffffffffffffff16815260200190815260200160002060008282546112169190611cd7565b925050819055508173ffffffffffffffffffffffffffffffffffffffff16600073ffffffffffffffffffffffffffffffffffffffff167fddf252ad1be2c89b69c2b068fc378daa952ba7f163c4a11628f55a4df523b3ef8360405161127b91906119aa565b60405180910390a361128f6000838361146e565b5050565b600073ffffffffffffffffffffffffffffffffffffffff168273ffffffffffffffffffffffffffffffffffffffff1603611302576040517f08c379a00000000000000000000000000000000000000000000000000000000081526004016112f9906121e3565b60405180910390fd5b61130e82600083611469565b60008060008473ffffffffffffffffffffffffffffffffffffffff1673ffffffffffffffffffffffffffffffffffffffff16815260200190815260200160002054905081811015611394576040517f08c379a000000000000000000000000000000000000000000000000000000000815260040161138b90612275565b60405180910390fd5b8181036000808573ffffffffffffffffffffffffffffffffffffffff1673ffffffffffffffffffffffffffffffffffffffff1681526020019081526020016000208190555081600260008282546113eb9190612295565b92505081905550600073ffffffffffffffffffffffffffffffffffffffff168373ffffffffffffffffffffffffffffffffffffffff167fddf252ad1be2c89b69c2b068fc378daa952ba7f163c4a11628f55a4df523b3ef8460405161145091906119aa565b60405180910390a36114648360008461146e565b505050565b505050565b505050565b61147d82826107ad565b61150c576114a28173ffffffffffffffffffffffffffffffffffffffff166014611510565b6114b08360001c6020611510565b6040516020016114c192919061239d565b6040516020818303038152906040526040517f08c379a000000000000000000000000000000000000000000000000000000000815260040161150391906118a5565b60405180910390fd5b5050565b60606000600283600261152391906123d7565b61152d9190611cd7565b67ffffffffffffffff81111561154657611545612431565b5b6040519080825280601f01601f1916602001820160405280156115785781602001600182028036833780820191505090505b5090507f3000000000000000000000000000000000000000000000000000000000000000816000815181106115b0576115af612460565b5b60200101907effffffffffffffffffffffffffffffffffffffffffffffffffffffffffffff1916908160001a9053507f78000000000000000000000000000000000000000000000000000000000000008160018151811061161457611613612460565b5b60200101907effffffffffffffffffffffffffffffffffffffffffffffffffffffffffffff1916908160001a9053506000600184600261165491906123d7565b61165e9190611cd7565b90505b60018111156116fe577f3031323334353637383961626364656600000000000000000000000000000000600f8616601081106116a05761169f612460565b5b1a60f81b8282815181106116b7576116b6612460565b5b60200101907effffffffffffffffffffffffffffffffffffffffffffffffffffffffffffff1916908160001a905350600485901c9450806116f79061248f565b9050611661565b5060008414611742576040517f08c379a000000000000000000000000000000000000000000000000000000000815260040161173990612504565b60405180910390fd5b8091505092915050565b600080fd5b60007fffffffff0000000000000000000000000000000000000000000000000000000082169050919050565b61178681611751565b811461179157600080fd5b50565b6000813590506117a38161177d565b92915050565b6000602082840312156117bf576117be61174c565b5b60006117cd84828501611794565b91505092915050565b60008115159050919050565b6117eb816117d6565b82525050565b600060208201905061180660008301846117e2565b92915050565b600081519050919050565b600082825260208201905092915050565b60005b8381101561184657808201518184015260208101905061182b565b83811115611855576000848401525b50505050565b6000601f19601f8301169050919050565b60006118778261180c565b6118818185611817565b9350611891818560208601611828565b61189a8161185b565b840191505092915050565b600060208201905081810360008301526118bf818461186c565b905092915050565b600073ffffffffffffffffffffffffffffffffffffffff82169050919050565b60006118f2826118c7565b9050919050565b611902816118e7565b811461190d57600080fd5b50565b60008135905061191f816118f9565b92915050565b6000819050919050565b61193881611925565b811461194357600080fd5b50565b6000813590506119558161192f565b92915050565b600080604083850312156119725761197161174c565b5b600061198085828601611910565b925050602061199185828601611946565b9150509250929050565b6119a481611925565b82525050565b60006020820190506119bf600083018461199b565b92915050565b6000806000606084860312156119de576119dd61174c565b5b60006119ec86828701611910565b93505060206119fd86828701611910565b9250506040611a0e86828701611946565b9150509250925092565b6000819050919050565b611a2b81611a18565b8114611a3657600080fd5b50565b600081359050611a4881611a22565b92915050565b600060208284031215611a6457611a6361174c565b5b6000611a7284828501611a39565b91505092915050565b611a8481611a18565b82525050565b6000602082019050611a9f6000830184611a7b565b92915050565b60008060408385031215611abc57611abb61174c565b5b6000611aca85828601611a39565b9250506020611adb85828601611910565b9150509250929050565b600060ff82169050919050565b611afb81611ae5565b82525050565b6000602082019050611b166000830184611af2565b92915050565b600060208284031215611b3257611b3161174c565b5b6000611b4084828501611946565b91505092915050565b600060208284031215611b5f57611b5e61174c565b5b6000611b6d84828501611910565b91505092915050565b60008060408385031215611b8d57611b8c61174c565b5b6000611b9b85828601611910565b9250506020611bac85828601611910565b9150509250929050565b7f4e487b7100000000000000000000000000000000000000000000000000000000600052602260045260246000fd5b60006002820490506001821680611bfd57607f821691505b602082108103611c1057611c0f611bb6565b5b50919050565b7f416363657373436f6e74726f6c3a2063616e206f6e6c792072656e6f756e636560008201527f20726f6c657320666f722073656c660000000000000000000000000000000000602082015250565b6000611c72602f83611817565b9150611c7d82611c16565b604082019050919050565b60006020820190508181036000830152611ca181611c65565b9050919050565b7f4e487b7100000000000000000000000000000000000000000000000000000000600052601160045260246000fd5b6000611ce282611925565b9150611ced83611925565b9250827fffffffffffffffffffffffffffffffffffffffffffffffffffffffffffffffff03821115611d2257611d21611ca8565b5b828201905092915050565b7f45524332303a2064656372656173656420616c6c6f77616e63652062656c6f7760008201527f207a65726f000000000000000000000000000000000000000000000000000000602082015250565b6000611d89602583611817565b9150611d9482611d2d565b604082019050919050565b60006020820190508181036000830152611db881611d7c565b9050919050565b7f45524332303a20617070726f76652066726f6d20746865207a65726f2061646460008201527f7265737300000000000000000000000000000000000000000000000000000000602082015250565b6000611e1b602483611817565b9150611e2682611dbf565b604082019050919050565b60006020820190508181036000830152611e4a81611e0e565b9050919050565b7f45524332303a20617070726f766520746f20746865207a65726f20616464726560008201527f7373000000000000000000000000000000000000000000000000000000000000602082015250565b6000611ead602283611817565b9150611eb882611e51565b604082019050919050565b60006020820190508181036000830152611edc81611ea0565b9050919050565b7f45524332303a20696e73756666696369656e7420616c6c6f77616e6365000000600082015250565b6000611f19601d83611817565b9150611f2482611ee3565b602082019050919050565b60006020820190508181036000830152611f4881611f0c565b9050919050565b7f45524332303a207472616e736665722066726f6d20746865207a65726f20616460008201527f6472657373000000000000000000000000000000000000000000000000000000602082015250565b6000611fab602583611817565b9150611fb682611f4f565b604082019050919050565b60006020820190508181036000830152611fda81611f9e565b9050919050565b7f45524332303a207472616e7366657220746f20746865207a65726f206164647260008201527f6573730000000000000000000000000000000000000000000000000000000000602082015250565b600061203d602383611817565b915061204882611fe1565b604082019050919050565b6000602082019050818103600083015261206c81612030565b9050919050565b7f45524332303a207472616e7366657220616d6f756e742065786365656473206260008201527f616c616e63650000000000000000000000000000000000000000000000000000602082015250565b60006120cf602683611817565b91506120da82612073565b604082019050919050565b600060208201905081810360008301526120fe816120c2565b9050919050565b7f45524332303a206d696e7420746f20746865207a65726f206164647265737300600082015250565b600061213b601f83611817565b915061214682612105565b602082019050919050565b6000602082019050818103600083015261216a8161212e565b9050919050565b7f45524332303a206275726e2066726f6d20746865207a65726f2061646472657360008201527f7300000000000000000000000000000000000000000000000000000000000000602082015250565b60006121cd602183611817565b91506121d882612171565b604082019050919050565b600060208201905081810360008301526121fc816121c0565b9050919050565b7f45524332303a206275726e20616d6f756e7420657863656564732062616c616e60008201527f6365000000000000000000000000000000000000000000000000000000000000602082015250565b600061225f602283611817565b915061226a82612203565b604082019050919050565b6000602082019050818103600083015261228e81612252565b9050919050565b60006122a082611925565b91506122ab83611925565b9250828210156122be576122bd611ca8565b5b828203905092915050565b600081905092915050565b7f416363657373436f6e74726f6c3a206163636f756e7420000000000000000000600082015250565b600061230a6017836122c9565b9150612315826122d4565b601782019050919050565b600061232b8261180c565b61233581856122c9565b9350612345818560208601611828565b80840191505092915050565b7f206973206d697373696e6720726f6c6520000000000000000000000000000000600082015250565b60006123876011836122c9565b915061239282612351565b601182019050919050565b60006123a8826122fd565b91506123b48285612320565b91506123bf8261237a565b91506123cb8284612320565b91508190509392505050565b60006123e282611925565b91506123ed83611925565b9250817fffffffffffffffffffffffffffffffffffffffffffffffffffffffffffffffff048311821515161561242657612425611ca8565b5b828202905092915050565b7f4e487b7100000000000000000000000000000000000000000000000000000000600052604160045260246000fd5b7f4e487b7100000000000000000000000000000000000000000000000000000000600052603260045260246000fd5b600061249a82611925565b9150600082036124ad576124ac611ca8565b5b600182039050919050565b7f537472696e67733a20686578206c656e67746820696e73756666696369656e74600082015250565b60006124ee602083611817565b91506124f9826124b8565b602082019050919050565b6000602082019050818103600083015261251d816124e1565b905091905056fea26469706673582212208b1a062d156608e348ef4e2fc42cc8733c8f5fd0d9afc7bc89dd5ab96268ddee64736f6c634300080d0033",
  "immutableReferences": {},
  "source": "// SPDX-License-Identifier: MIT\npragma solidity ^0.8.0;\n\nimport \"@openzeppelin/contracts/token/ERC20/ERC20.sol\";\nimport \"@openzeppelin/contracts/token/ERC20/extensions/ERC20Burnable.sol\";\nimport \"@openzeppelin/contracts/access/AccessControl.sol\";\n\ncontract PumpTokenERC20 is ERC20, ERC20Burnable, AccessControl {\n    bytes32 public constant MINTER_ROLE = keccak256(\"MINTER_ROLE\");\n\n    uint256 _maxStakeYield = 30000000 ether;\n    uint256 _currentStakeYield = 0;\n\n    address private _communityRewards = address(0xdef1F61772C793DE0F6D9F897121646C79C1d8F5);\n    address private _daoWallet = address(0xdef1F61772C793DE0F6D9F897121646C79C1d8F5);\n    address private _teamWallet = address(0xdef1F61772C793DE0F6D9F897121646C79C1d8F5);\n\n    constructor() ERC20(\"Pump\", \"PMP\") {\n        _mint(_communityRewards, _maxStakeYield);\n        _mint(_daoWallet, _maxStakeYield);\n        _mint(_teamWallet, _maxStakeYield / 3);\n        _grantRole(DEFAULT_ADMIN_ROLE, msg.sender);\n        _grantRole(MINTER_ROLE, msg.sender);\n    }\n\n    function mint(address to, uint256 amount) public { //onlyRole(MINTER_ROLE)\n        require((_currentStakeYield + amount) < _maxStakeYield);\n        _mint(to, amount);\n        _currentStakeYield += amount;\n    }\n}",
  "sourcePath": "/home/user/work/jacStaking/jacStaking/contracts/PumpTokenERC20.sol",
  "compiler": {
    "name": "solc",
    "version": "0.8.13+commit.abaa5c0e.Emscripten.clang"
  },
  "schemaVersion": "3.4.7",
  "updatedAt": "2022-06-30T09:06:08.441Z",
  "networkType": "ethereum",
  "devdoc": {
    "kind": "dev",
    "methods": {
      "allowance(address,address)": {
        "details": "See {IERC20-allowance}."
      },
      "approve(address,uint256)": {
        "details": "See {IERC20-approve}. NOTE: If `amount` is the maximum `uint256`, the allowance is not updated on `transferFrom`. This is semantically equivalent to an infinite approval. Requirements: - `spender` cannot be the zero address."
      },
      "balanceOf(address)": {
        "details": "See {IERC20-balanceOf}."
      },
      "burn(uint256)": {
        "details": "Destroys `amount` tokens from the caller. See {ERC20-_burn}."
      },
      "burnFrom(address,uint256)": {
        "details": "Destroys `amount` tokens from `account`, deducting from the caller's allowance. See {ERC20-_burn} and {ERC20-allowance}. Requirements: - the caller must have allowance for ``accounts``'s tokens of at least `amount`."
      },
      "decimals()": {
        "details": "Returns the number of decimals used to get its user representation. For example, if `decimals` equals `2`, a balance of `505` tokens should be displayed to a user as `5.05` (`505 / 10 ** 2`). Tokens usually opt for a value of 18, imitating the relationship between Ether and Wei. This is the value {ERC20} uses, unless this function is overridden; NOTE: This information is only used for _display_ purposes: it in no way affects any of the arithmetic of the contract, including {IERC20-balanceOf} and {IERC20-transfer}."
      },
      "decreaseAllowance(address,uint256)": {
        "details": "Atomically decreases the allowance granted to `spender` by the caller. This is an alternative to {approve} that can be used as a mitigation for problems described in {IERC20-approve}. Emits an {Approval} event indicating the updated allowance. Requirements: - `spender` cannot be the zero address. - `spender` must have allowance for the caller of at least `subtractedValue`."
      },
      "getRoleAdmin(bytes32)": {
        "details": "Returns the admin role that controls `role`. See {grantRole} and {revokeRole}. To change a role's admin, use {_setRoleAdmin}."
      },
      "grantRole(bytes32,address)": {
        "details": "Grants `role` to `account`. If `account` had not been already granted `role`, emits a {RoleGranted} event. Requirements: - the caller must have ``role``'s admin role. May emit a {RoleGranted} event."
      },
      "hasRole(bytes32,address)": {
        "details": "Returns `true` if `account` has been granted `role`."
      },
      "increaseAllowance(address,uint256)": {
        "details": "Atomically increases the allowance granted to `spender` by the caller. This is an alternative to {approve} that can be used as a mitigation for problems described in {IERC20-approve}. Emits an {Approval} event indicating the updated allowance. Requirements: - `spender` cannot be the zero address."
      },
      "name()": {
        "details": "Returns the name of the token."
      },
      "renounceRole(bytes32,address)": {
        "details": "Revokes `role` from the calling account. Roles are often managed via {grantRole} and {revokeRole}: this function's purpose is to provide a mechanism for accounts to lose their privileges if they are compromised (such as when a trusted device is misplaced). If the calling account had been revoked `role`, emits a {RoleRevoked} event. Requirements: - the caller must be `account`. May emit a {RoleRevoked} event."
      },
      "revokeRole(bytes32,address)": {
        "details": "Revokes `role` from `account`. If `account` had been granted `role`, emits a {RoleRevoked} event. Requirements: - the caller must have ``role``'s admin role. May emit a {RoleRevoked} event."
      },
      "supportsInterface(bytes4)": {
        "details": "See {IERC165-supportsInterface}."
      },
      "symbol()": {
        "details": "Returns the symbol of the token, usually a shorter version of the name."
      },
      "totalSupply()": {
        "details": "See {IERC20-totalSupply}."
      },
      "transfer(address,uint256)": {
        "details": "See {IERC20-transfer}. Requirements: - `to` cannot be the zero address. - the caller must have a balance of at least `amount`."
      },
      "transferFrom(address,address,uint256)": {
        "details": "See {IERC20-transferFrom}. Emits an {Approval} event indicating the updated allowance. This is not required by the EIP. See the note at the beginning of {ERC20}. NOTE: Does not update the allowance if the current allowance is the maximum `uint256`. Requirements: - `from` and `to` cannot be the zero address. - `from` must have a balance of at least `amount`. - the caller must have allowance for ``from``'s tokens of at least `amount`."
      }
    },
    "version": 1
  },
  "userdoc": {
    "kind": "user",
    "methods": {},
    "version": 1
  }
}