{
  "contractName": "Stakeable",
  "abi": [
    {
      "inputs": [
        {
          "internalType": "contract IERC721",
          "name": "_nft",
          "type": "address"
        },
        {
          "internalType": "contract IRewardToken",
          "name": "_rewardsToken",
          "type": "address"
        }
      ],
      "stateMutability": "nonpayable",
      "type": "constructor"
    },
    {
      "anonymous": false,
      "inputs": [
        {
          "indexed": true,
          "internalType": "address",
          "name": "user",
          "type": "address"
        },
        {
          "indexed": false,
          "internalType": "uint256",
          "name": "tokenId",
          "type": "uint256"
        }
      ],
      "name": "EmergencyUnstake",
      "type": "event"
    },
    {
      "anonymous": false,
      "inputs": [
        {
          "indexed": true,
          "internalType": "address",
          "name": "user",
          "type": "address"
        },
        {
          "indexed": false,
          "internalType": "uint256",
          "name": "tokenId",
          "type": "uint256"
        },
        {
          "indexed": false,
          "internalType": "uint256",
          "name": "timestamp",
          "type": "uint256"
        }
      ],
      "name": "Staked",
      "type": "event"
    },
    {
      "anonymous": false,
      "inputs": [
        {
          "indexed": true,
          "internalType": "address",
          "name": "user",
          "type": "address"
        },
        {
          "indexed": false,
          "internalType": "uint256",
          "name": "tokenId",
          "type": "uint256"
        },
        {
          "indexed": false,
          "internalType": "uint256",
          "name": "timestamp",
          "type": "uint256"
        }
      ],
      "name": "Unstaked",
      "type": "event"
    },
    {
      "inputs": [],
      "name": "nft",
      "outputs": [
        {
          "internalType": "contract IERC721",
          "name": "",
          "type": "address"
        }
      ],
      "stateMutability": "view",
      "type": "function",
      "constant": true
    },
    {
      "inputs": [
        {
          "internalType": "address",
          "name": "",
          "type": "address"
        },
        {
          "internalType": "address",
          "name": "",
          "type": "address"
        },
        {
          "internalType": "uint256",
          "name": "",
          "type": "uint256"
        },
        {
          "internalType": "bytes",
          "name": "",
          "type": "bytes"
        }
      ],
      "name": "onERC721Received",
      "outputs": [
        {
          "internalType": "bytes4",
          "name": "",
          "type": "bytes4"
        }
      ],
      "stateMutability": "nonpayable",
      "type": "function"
    },
    {
      "inputs": [],
      "name": "rewardRate",
      "outputs": [
        {
          "internalType": "uint256",
          "name": "",
          "type": "uint256"
        }
      ],
      "stateMutability": "view",
      "type": "function",
      "constant": true
    },
    {
      "inputs": [],
      "name": "rewardsToken",
      "outputs": [
        {
          "internalType": "contract IRewardToken",
          "name": "",
          "type": "address"
        }
      ],
      "stateMutability": "view",
      "type": "function",
      "constant": true
    },
    {
      "inputs": [],
      "name": "stakedTotal",
      "outputs": [
        {
          "internalType": "uint256",
          "name": "",
          "type": "uint256"
        }
      ],
      "stateMutability": "view",
      "type": "function",
      "constant": true
    },
    {
      "inputs": [
        {
          "internalType": "uint256",
          "name": "",
          "type": "uint256"
        }
      ],
      "name": "tokenOwner",
      "outputs": [
        {
          "internalType": "address",
          "name": "",
          "type": "address"
        }
      ],
      "stateMutability": "view",
      "type": "function",
      "constant": true
    },
    {
      "inputs": [],
      "name": "yieldsPaid",
      "outputs": [
        {
          "internalType": "uint256",
          "name": "",
          "type": "uint256"
        }
      ],
      "stateMutability": "view",
      "type": "function",
      "constant": true
    },
    {
      "inputs": [
        {
          "internalType": "address",
          "name": "_user",
          "type": "address"
        }
      ],
      "name": "getStakedTime",
      "outputs": [
        {
          "internalType": "uint256[]",
          "name": "stakedTimes",
          "type": "uint256[]"
        }
      ],
      "stateMutability": "view",
      "type": "function",
      "constant": true
    },
    {
      "inputs": [
        {
          "internalType": "address",
          "name": "_user",
          "type": "address"
        }
      ],
      "name": "getStakedTokenIds",
      "outputs": [
        {
          "internalType": "uint256[]",
          "name": "tokenIds",
          "type": "uint256[]"
        }
      ],
      "stateMutability": "view",
      "type": "function",
      "constant": true
    },
    {
      "inputs": [
        {
          "internalType": "address",
          "name": "_user",
          "type": "address"
        }
      ],
      "name": "getYields",
      "outputs": [
        {
          "internalType": "uint256",
          "name": "availableYield",
          "type": "uint256"
        }
      ],
      "stateMutability": "view",
      "type": "function",
      "constant": true
    },
    {
      "inputs": [
        {
          "internalType": "uint256",
          "name": "tokenId",
          "type": "uint256"
        }
      ],
      "name": "stake",
      "outputs": [],
      "stateMutability": "nonpayable",
      "type": "function"
    },
    {
      "inputs": [
        {
          "internalType": "uint256[]",
          "name": "tokenIds",
          "type": "uint256[]"
        }
      ],
      "name": "stakeBatch",
      "outputs": [],
      "stateMutability": "nonpayable",
      "type": "function"
    },
    {
      "inputs": [
        {
          "internalType": "uint256",
          "name": "_tokenId",
          "type": "uint256"
        }
      ],
      "name": "unstake",
      "outputs": [],
      "stateMutability": "nonpayable",
      "type": "function"
    },
    {
      "inputs": [
        {
          "internalType": "uint256[]",
          "name": "tokenIds",
          "type": "uint256[]"
        }
      ],
      "name": "unstakeBatch",
      "outputs": [],
      "stateMutability": "nonpayable",
      "type": "function"
    },
    {
      "inputs": [
        {
          "internalType": "uint256",
          "name": "_tokenId",
          "type": "uint256"
        }
      ],
      "name": "emergencyUnstake",
      "outputs": [],
      "stateMutability": "nonpayable",
      "type": "function"
    },
    {
      "inputs": [],
      "name": "claimReward",
      "outputs": [],
      "stateMutability": "nonpayable",
      "type": "function"
    }
  ],
  "bytecode": "0x6080604052600a6003553480156200001657600080fd5b50604051620021e9380380620021e983398181016040528101906200003c919062000188565b81600160006101000a81548173ffffffffffffffffffffffffffffffffffffffff021916908373ffffffffffffffffffffffffffffffffffffffff160217905550806000806101000a81548173ffffffffffffffffffffffffffffffffffffffff021916908373ffffffffffffffffffffffffffffffffffffffff1602179055505050620001cf565b600080fd5b600073ffffffffffffffffffffffffffffffffffffffff82169050919050565b6000620000f782620000ca565b9050919050565b60006200010b82620000ea565b9050919050565b6200011d81620000fe565b81146200012957600080fd5b50565b6000815190506200013d8162000112565b92915050565b60006200015082620000ea565b9050919050565b620001628162000143565b81146200016e57600080fd5b50565b600081519050620001828162000157565b92915050565b60008060408385031215620001a257620001a1620000c5565b5b6000620001b2858286016200012c565b9250506020620001c58582860162000171565b9150509250929050565b61200a80620001df6000396000f3fe608060405234801561001057600080fd5b50600436106101005760003560e01c80634ff9201211610097578063b88a802f11610066578063b88a802f146102bf578063d1af0c7d146102c9578063d66692a7146102e7578063e64a21f31461030557610100565b80634ff92012146102255780637047bc52146102555780637b0a47ee14610285578063a694fc3a146102a357610100565b80632e17de78116100d35780632e17de781461019d5780633f8d4a31146101b957806344cd089f146101d757806347ccca021461020757610100565b8063012ce50114610105578063150b7a02146101215780631caaa48714610151578063230f436d14610181575b600080fd5b61011f600480360381019061011a91906114c2565b610321565b005b61013b60048036038101906101369190611693565b61041d565b6040516101489190611751565b60405180910390f35b61016b600480360381019061016691906114c2565b610431565b604051610178919061177b565b60405180910390f35b61019b6004803603810190610196919061185e565b610464565b005b6101b760048036038101906101b291906114c2565b6105bd565b005b6101c16106dc565b6040516101ce91906118b6565b60405180910390f35b6101f160048036038101906101ec91906118d1565b6106e2565b6040516101fe91906119bc565b60405180910390f35b61020f61077c565b60405161021c9190611a3d565b60405180910390f35b61023f600480360381019061023a91906118d1565b6107a2565b60405161024c91906118b6565b60405180910390f35b61026f600480360381019061026a91906118d1565b6107ee565b60405161027c91906119bc565b60405180910390f35b61028d610888565b60405161029a91906118b6565b60405180910390f35b6102bd60048036038101906102b891906114c2565b61088e565b005b6102c76109ad565b005b6102d1610c5d565b6040516102de9190611a79565b60405180910390f35b6102ef610c81565b6040516102fc91906118b6565b60405180910390f35b61031f600480360381019061031a919061185e565b610c87565b005b3373ffffffffffffffffffffffffffffffffffffffff166005600083815260200190815260200160002060009054906101000a900473ffffffffffffffffffffffffffffffffffffffff1673ffffffffffffffffffffffffffffffffffffffff16146103c2576040517f08c379a00000000000000000000000000000000000000000000000000000000081526004016103b990611b17565b60405180910390fd5b6103cc3382610e65565b3373ffffffffffffffffffffffffffffffffffffffff167f571394674ec9d9e81517060110f8f894ce912af2b2febc091bee0cdea68adf008260405161041291906118b6565b60405180910390a250565b600063150b7a0260e01b9050949350505050565b60056020528060005260406000206000915054906101000a900473ffffffffffffffffffffffffffffffffffffffff1681565b336000600660008373ffffffffffffffffffffffffffffffffffffffff1673ffffffffffffffffffffffffffffffffffffffff168152602001908152602001600020905060008160000180549050905060008082036104cf5760649050428360030181905550610508565b60048211156104e15760c89050610507565b6000821115610506578160196104f79190611b66565b604b6105039190611bc0565b90505b5b5b6003546064670de0b6b3a76400008560030154426105269190611c16565b6105309190611b66565b8361053b9190611b66565b6105459190611c79565b61054f9190611c79565b8360020160008282546105629190611bc0565b9250508190555042836003018190555060005b85518110156105b5576105a23387838151811061059557610594611caa565b5b6020026020010151611186565b80806105ad90611cd9565b915050610575565b505050505050565b336000600660008373ffffffffffffffffffffffffffffffffffffffff1673ffffffffffffffffffffffffffffffffffffffff168152602001908152602001600020905060008160000180549050905060008082036106285760649050428360030181905550610661565b600482111561063a5760c89050610660565b600082111561065f578160196106509190611b66565b604b61065c9190611bc0565b90505b5b5b6003546064670de0b6b3a764000085600301544261067f9190611c16565b6106899190611b66565b836106949190611b66565b61069e9190611c79565b6106a89190611c79565b8360020160008282546106bb9190611bc0565b925050819055504283600301819055506106d53386610e65565b5050505050565b60025481565b6060600660008373ffffffffffffffffffffffffffffffffffffffff1673ffffffffffffffffffffffffffffffffffffffff16815260200190815260200160002060010180548060200260200160405190810160405280929190818152602001828054801561077057602002820191906000526020600020905b81548152602001906001019080831161075c575b50505050509050919050565b600160009054906101000a900473ffffffffffffffffffffffffffffffffffffffff1681565b6000600660008373ffffffffffffffffffffffffffffffffffffffff1673ffffffffffffffffffffffffffffffffffffffff168152602001908152602001600020600201549050919050565b6060600660008373ffffffffffffffffffffffffffffffffffffffff1673ffffffffffffffffffffffffffffffffffffffff16815260200190815260200160002060000180548060200260200160405190810160405280929190818152602001828054801561087c57602002820191906000526020600020905b815481526020019060010190808311610868575b50505050509050919050565b60035481565b336000600660008373ffffffffffffffffffffffffffffffffffffffff1673ffffffffffffffffffffffffffffffffffffffff168152602001908152602001600020905060008160000180549050905060008082036108f95760649050428360030181905550610932565b600482111561090b5760c89050610931565b6000821115610930578160196109219190611b66565b604b61092d9190611bc0565b90505b5b5b6003546064670de0b6b3a76400008560030154426109509190611c16565b61095a9190611b66565b836109659190611b66565b61096f9190611c79565b6109799190611c79565b83600201600082825461098c9190611bc0565b925050819055504283600301819055506109a63386611186565b5050505050565b336000600660008373ffffffffffffffffffffffffffffffffffffffff1673ffffffffffffffffffffffffffffffffffffffff16815260200190815260200160002090506000816000018054905090506000808203610a185760649050428360030181905550610a51565b6004821115610a2a5760c89050610a50565b6000821115610a4f57816019610a409190611b66565b604b610a4c9190611bc0565b90505b5b5b6003546064670de0b6b3a7640000856003015442610a6f9190611c16565b610a799190611b66565b83610a849190611b66565b610a8e9190611c79565b610a989190611c79565b836002016000828254610aab9190611bc0565b925050819055504283600301819055506000600660003373ffffffffffffffffffffffffffffffffffffffff1673ffffffffffffffffffffffffffffffffffffffff1681526020019081526020016000206002015411610b40576040517f08c379a0000000000000000000000000000000000000000000000000000000008152600401610b3790611d6d565b60405180910390fd5b60008054906101000a900473ffffffffffffffffffffffffffffffffffffffff1673ffffffffffffffffffffffffffffffffffffffff166340c10f1933600660003373ffffffffffffffffffffffffffffffffffffffff1673ffffffffffffffffffffffffffffffffffffffff168152602001908152602001600020600201546040518363ffffffff1660e01b8152600401610bdd929190611d8d565b600060405180830381600087803b158015610bf757600080fd5b505af1158015610c0b573d6000803e3d6000fd5b505050506000600660003373ffffffffffffffffffffffffffffffffffffffff1673ffffffffffffffffffffffffffffffffffffffff1681526020019081526020016000206002018190555050505050565b60008054906101000a900473ffffffffffffffffffffffffffffffffffffffff1681565b60045481565b336000600660008373ffffffffffffffffffffffffffffffffffffffff1673ffffffffffffffffffffffffffffffffffffffff16815260200190815260200160002090506000816000018054905090506000808203610cf25760649050428360030181905550610d2b565b6004821115610d045760c89050610d2a565b6000821115610d2957816019610d1a9190611b66565b604b610d269190611bc0565b90505b5b5b6003546064670de0b6b3a7640000856003015442610d499190611c16565b610d539190611b66565b83610d5e9190611b66565b610d689190611c79565b610d729190611c79565b836002016000828254610d859190611bc0565b9250508190555042836003018190555060005b8551811015610e5d573373ffffffffffffffffffffffffffffffffffffffff1660056000888481518110610dcf57610dce611caa565b5b6020026020010151815260200190815260200160002060009054906101000a900473ffffffffffffffffffffffffffffffffffffffff1673ffffffffffffffffffffffffffffffffffffffff1614610e2657600080fd5b610e4a33878381518110610e3d57610e3c611caa565b5b6020026020010151610e65565b8080610e5590611cd9565b915050610d98565b505050505050565b8173ffffffffffffffffffffffffffffffffffffffff166005600083815260200190815260200160002060009054906101000a900473ffffffffffffffffffffffffffffffffffffffff1673ffffffffffffffffffffffffffffffffffffffff1614610f06576040517f08c379a0000000000000000000000000000000000000000000000000000000008152600401610efd90611e28565b60405180910390fd5b6000600660008473ffffffffffffffffffffffffffffffffffffffff1673ffffffffffffffffffffffffffffffffffffffff16815260200190815260200160002090506000816000018054905011156110525760005b81600001805490508110156110505782826000018281548110610f8257610f81611caa565b5b90600052602060002001540361103d578160000160018360000180549050610faa9190611c16565b81548110610fbb57610fba611caa565b5b9060005260206000200154826000018281548110610fdc57610fdb611caa565b5b906000526020600020018190555081600001805480610ffe57610ffd611e48565b5b6001900381819060005260206000200160009055905581600101818154811061102a57611029611caa565b5b9060005260206000200160009055611050565b808061104890611cd9565b915050610f5c565b505b6005600083815260200190815260200160002060006101000a81549073ffffffffffffffffffffffffffffffffffffffff0219169055600160009054906101000a900473ffffffffffffffffffffffffffffffffffffffff1673ffffffffffffffffffffffffffffffffffffffff166342842e0e3085856040518463ffffffff1660e01b81526004016110e793929190611e77565b600060405180830381600087803b15801561110157600080fd5b505af1158015611115573d6000803e3d6000fd5b505050508273ffffffffffffffffffffffffffffffffffffffff167f7fc4727e062e336010f2c282598ef5f14facb3de68cf8195c2f23e1454b2b74e8342604051611161929190611eae565b60405180910390a26004600081548092919061117c90611ed7565b9190505550505050565b8173ffffffffffffffffffffffffffffffffffffffff16600160009054906101000a900473ffffffffffffffffffffffffffffffffffffffff1673ffffffffffffffffffffffffffffffffffffffff16636352211e836040518263ffffffff1660e01b81526004016111f891906118b6565b602060405180830381865afa158015611215573d6000803e3d6000fd5b505050506040513d601f19601f820116820180604052508101906112399190611f15565b73ffffffffffffffffffffffffffffffffffffffff161461128f576040517f08c379a000000000000000000000000000000000000000000000000000000000815260040161128690611fb4565b60405180910390fd5b6000600660008473ffffffffffffffffffffffffffffffffffffffff1673ffffffffffffffffffffffffffffffffffffffff16815260200190815260200160002090508060000182908060018154018082558091505060019003906000526020600020016000909190919091505580600101429080600181540180825580915050600190039060005260206000200160009091909190915055826005600084815260200190815260200160002060006101000a81548173ffffffffffffffffffffffffffffffffffffffff021916908373ffffffffffffffffffffffffffffffffffffffff160217905550600160009054906101000a900473ffffffffffffffffffffffffffffffffffffffff1673ffffffffffffffffffffffffffffffffffffffff166342842e0e8430856040518463ffffffff1660e01b81526004016113d993929190611e77565b600060405180830381600087803b1580156113f357600080fd5b505af1158015611407573d6000803e3d6000fd5b505050508273ffffffffffffffffffffffffffffffffffffffff167f1449c6dd7851abc30abf37f57715f492010519147cc2652fbc38202c18a6ee908342604051611453929190611eae565b60405180910390a26004600081548092919061146e90611cd9565b9190505550505050565b6000604051905090565b600080fd5b600080fd5b6000819050919050565b61149f8161148c565b81146114aa57600080fd5b50565b6000813590506114bc81611496565b92915050565b6000602082840312156114d8576114d7611482565b5b60006114e6848285016114ad565b91505092915050565b600073ffffffffffffffffffffffffffffffffffffffff82169050919050565b600061151a826114ef565b9050919050565b61152a8161150f565b811461153557600080fd5b50565b60008135905061154781611521565b92915050565b600080fd5b600080fd5b6000601f19601f8301169050919050565b7f4e487b7100000000000000000000000000000000000000000000000000000000600052604160045260246000fd5b6115a082611557565b810181811067ffffffffffffffff821117156115bf576115be611568565b5b80604052505050565b60006115d2611478565b90506115de8282611597565b919050565b600067ffffffffffffffff8211156115fe576115fd611568565b5b61160782611557565b9050602081019050919050565b82818337600083830152505050565b6000611636611631846115e3565b6115c8565b90508281526020810184848401111561165257611651611552565b5b61165d848285611614565b509392505050565b600082601f83011261167a5761167961154d565b5b813561168a848260208601611623565b91505092915050565b600080600080608085870312156116ad576116ac611482565b5b60006116bb87828801611538565b94505060206116cc87828801611538565b93505060406116dd878288016114ad565b925050606085013567ffffffffffffffff8111156116fe576116fd611487565b5b61170a87828801611665565b91505092959194509250565b60007fffffffff0000000000000000000000000000000000000000000000000000000082169050919050565b61174b81611716565b82525050565b60006020820190506117666000830184611742565b92915050565b6117758161150f565b82525050565b6000602082019050611790600083018461176c565b92915050565b600067ffffffffffffffff8211156117b1576117b0611568565b5b602082029050602081019050919050565b600080fd5b60006117da6117d584611796565b6115c8565b905080838252602082019050602084028301858111156117fd576117fc6117c2565b5b835b81811015611826578061181288826114ad565b8452602084019350506020810190506117ff565b5050509392505050565b600082601f8301126118455761184461154d565b5b81356118558482602086016117c7565b91505092915050565b60006020828403121561187457611873611482565b5b600082013567ffffffffffffffff81111561189257611891611487565b5b61189e84828501611830565b91505092915050565b6118b08161148c565b82525050565b60006020820190506118cb60008301846118a7565b92915050565b6000602082840312156118e7576118e6611482565b5b60006118f584828501611538565b91505092915050565b600081519050919050565b600082825260208201905092915050565b6000819050602082019050919050565b6119338161148c565b82525050565b6000611945838361192a565b60208301905092915050565b6000602082019050919050565b6000611969826118fe565b6119738185611909565b935061197e8361191a565b8060005b838110156119af5781516119968882611939565b97506119a183611951565b925050600181019050611982565b5085935050505092915050565b600060208201905081810360008301526119d6818461195e565b905092915050565b6000819050919050565b6000611a036119fe6119f9846114ef565b6119de565b6114ef565b9050919050565b6000611a15826119e8565b9050919050565b6000611a2782611a0a565b9050919050565b611a3781611a1c565b82525050565b6000602082019050611a526000830184611a2e565b92915050565b6000611a6382611a0a565b9050919050565b611a7381611a58565b82525050565b6000602082019050611a8e6000830184611a6a565b92915050565b600082825260208201905092915050565b7f6e66742e5f756e7374616b653a2053656e646572206d7573742068617665207360008201527f74616b656420746f6b656e494400000000000000000000000000000000000000602082015250565b6000611b01602d83611a94565b9150611b0c82611aa5565b604082019050919050565b60006020820190508181036000830152611b3081611af4565b9050919050565b7f4e487b7100000000000000000000000000000000000000000000000000000000600052601160045260246000fd5b6000611b718261148c565b9150611b7c8361148c565b9250817fffffffffffffffffffffffffffffffffffffffffffffffffffffffffffffffff0483118215151615611bb557611bb4611b37565b5b828202905092915050565b6000611bcb8261148c565b9150611bd68361148c565b9250827fffffffffffffffffffffffffffffffffffffffffffffffffffffffffffffffff03821115611c0b57611c0a611b37565b5b828201905092915050565b6000611c218261148c565b9150611c2c8361148c565b925082821015611c3f57611c3e611b37565b5b828203905092915050565b7f4e487b7100000000000000000000000000000000000000000000000000000000600052601260045260246000fd5b6000611c848261148c565b9150611c8f8361148c565b925082611c9f57611c9e611c4a565b5b828204905092915050565b7f4e487b7100000000000000000000000000000000000000000000000000000000600052603260045260246000fd5b6000611ce48261148c565b91507fffffffffffffffffffffffffffffffffffffffffffffffffffffffffffffffff8203611d1657611d15611b37565b5b600182019050919050565b7f3020726577617264732079657400000000000000000000000000000000000000600082015250565b6000611d57600d83611a94565b9150611d6282611d21565b602082019050919050565b60006020820190508181036000830152611d8681611d4a565b9050919050565b6000604082019050611da2600083018561176c565b611daf60208301846118a7565b9392505050565b7f4e6674205374616b696e672053797374656d3a2075736572206d75737420626560008201527f20746865206f776e6572206f6620746865207374616b6564206e667400000000602082015250565b6000611e12603c83611a94565b9150611e1d82611db6565b604082019050919050565b60006020820190508181036000830152611e4181611e05565b9050919050565b7f4e487b7100000000000000000000000000000000000000000000000000000000600052603160045260246000fd5b6000606082019050611e8c600083018661176c565b611e99602083018561176c565b611ea660408301846118a7565b949350505050565b6000604082019050611ec360008301856118a7565b611ed060208301846118a7565b9392505050565b6000611ee28261148c565b915060008203611ef557611ef4611b37565b5b600182039050919050565b600081519050611f0f81611521565b92915050565b600060208284031215611f2b57611f2a611482565b5b6000611f3984828501611f00565b91505092915050565b7f75736572206d75737420626520746865206f776e6572206f662074686520746f60008201527f6b656e0000000000000000000000000000000000000000000000000000000000602082015250565b6000611f9e602383611a94565b9150611fa982611f42565b604082019050919050565b60006020820190508181036000830152611fcd81611f91565b905091905056fea2646970667358221220a89ec7db3c32c90efcc1e2b1323c544b532bfee5683ee471ad2b9a3fd00b8ea264736f6c634300080d0033",
  "immutableReferences": {},
  "source": "// SPDX-License-Identifier: MIT\npragma solidity ^0.8.0;\n\nimport \"@openzeppelin/contracts/token/ERC721/IERC721.sol\";\nimport \"@openzeppelin/contracts/token/ERC20/IERC20.sol\";\nimport \"@openzeppelin/contracts/token/ERC721/utils/ERC721Holder.sol\";\n\ninterface IRewardToken is IERC20 {\n    function mint(address to, uint256 amount) external;\n}\n\ncontract Stakeable is ERC721Holder {\n    IRewardToken public rewardsToken;\n    IERC721 public nft;\n\n    uint256 public yieldsPaid;\n    uint256 public rewardRate = 10; //17280; // seconds per token\n    uint public stakedTotal;\n\n    mapping(uint256 => address) public tokenOwner;\n    mapping(address => Staker) internal stakers;\n\n    struct Staker {\n        uint256[] tokenIds;\n        uint256[] stakedTimes;\n        uint256 availableYield;\n        uint256 lastUpdateTime;\n    }\n\n    event Staked(address indexed user, uint256 tokenId, uint256 timestamp);\n    event Unstaked(address indexed user, uint256 tokenId, uint256 timestamp);\n    event EmergencyUnstake(address indexed user, uint256 tokenId);\n\n    constructor(IERC721 _nft, IRewardToken _rewardsToken) {\n        nft = _nft;\n        rewardsToken = _rewardsToken;\n    }\n\n    function getStakedTime(address _user)\n        public\n        view\n        returns (uint256[] memory stakedTimes)\n    {\n        return stakers[_user].stakedTimes;\n    }\n\n    function getStakedTokenIds(address _user)\n        public\n        view\n        returns (uint256[] memory tokenIds)\n    {\n        return stakers[_user].tokenIds;\n    }\n\n    function getYields(address _user)\n        public\n        view\n        returns (uint256 availableYield)\n    {\n        return stakers[_user].availableYield;\n    }\n\n    modifier updateYields(address account) {\n        \n        Staker storage staker = stakers[account];\n        uint nfts = staker.tokenIds.length;\n        uint multiplier;\n        \n        if (nfts == 0){\n            multiplier = 100;\n            staker.lastUpdateTime = block.timestamp;\n        } else if (nfts > 4) {\n            multiplier = 200;\n        } else if (nfts > 0) {\n            multiplier = (75 + (25 * nfts));\n        }\n\n        staker.availableYield += ((multiplier * ((block.timestamp - staker.lastUpdateTime) * 1e18)) / 100) / rewardRate;\n        staker.lastUpdateTime = block.timestamp;\n        _;\n    }\n\n    function stake(uint256 tokenId) public updateYields(msg.sender) {\n        _stake(msg.sender, tokenId);\n    }\n\n    function stakeBatch(uint256[] memory tokenIds) public updateYields(msg.sender) {\n        for (uint i = 0; i < tokenIds.length; i++) {\n            _stake(msg.sender, tokenIds[i]);\n        }\n    }\n\n    function _stake(address _user, uint256 _tokenId) internal {\n        require(\n            nft.ownerOf(_tokenId) == _user,\n            \"user must be the owner of the token\"\n        );\n\n        Staker storage staker = stakers[_user];\n\n        staker.tokenIds.push(_tokenId);\n        staker.stakedTimes.push(block.timestamp);\n        tokenOwner[_tokenId] = _user;\n\n        nft.safeTransferFrom(_user, address(this), _tokenId);\n        emit Staked(_user, _tokenId, block.timestamp);\n        stakedTotal++;\n    }\n\n    function unstake(uint256 _tokenId) public updateYields(msg.sender) {\n        _unstake(msg.sender, _tokenId);\n    }\n\n    function unstakeBatch(uint256[] memory tokenIds) public updateYields(msg.sender) {\n        //claimReward(msg.sender);\n        for (uint256 i = 0; i < tokenIds.length; i++) {\n            require(tokenOwner[tokenIds[i]] == msg.sender);\n            _unstake(msg.sender, tokenIds[i]);\n        }\n    }\n\n    function _unstake(address _user, uint256 _tokenId) internal {\n        require(\n            tokenOwner[_tokenId] == _user,\n            \"Nft Staking System: user must be the owner of the staked nft\"\n        );\n        Staker storage staker = stakers[_user];\n        \n        // Needs to iterate to find the right index in the array\n        if (staker.tokenIds.length > 0) {\n            for (uint i = 0; i < staker.tokenIds.length; i++){\n                if (staker.tokenIds[i] == _tokenId) {\n                    staker.tokenIds[i] = staker.tokenIds[staker.tokenIds.length - 1];\n                    staker.tokenIds.pop();\n                    delete staker.stakedTimes[i];\n                    break;\n                }\n            }\n        }\n        delete tokenOwner[_tokenId];\n\n        nft.safeTransferFrom(address(this), _user, _tokenId);\n\n        emit Unstaked(_user, _tokenId, block.timestamp);\n        stakedTotal--;\n    }\n\n    // Unstake without caring about rewards. EMERGENCY ONLY.\n    function emergencyUnstake(uint256 _tokenId) public {\n        require(\n            tokenOwner[_tokenId] == msg.sender,\n            \"nft._unstake: Sender must have staked tokenID\"\n        );\n        _unstake(msg.sender, _tokenId);\n        emit EmergencyUnstake(msg.sender, _tokenId);\n    }\n\n    function claimReward() public updateYields(msg.sender) {\n        require(stakers[msg.sender].availableYield > 0 , \"0 rewards yet\");\n        rewardsToken.mint(msg.sender, stakers[msg.sender].availableYield);\n        stakers[msg.sender].availableYield = 0;\n    }\n}",
  "sourcePath": "/home/user/work/jacStaking/jacStaking/contracts/Stakeable.sol",
  "compiler": {
    "name": "solc",
    "version": "0.8.13+commit.abaa5c0e.Emscripten.clang"
  },
  "schemaVersion": "3.4.7",
  "updatedAt": "2022-06-30T09:06:08.493Z",
  "networkType": "ethereum",
  "devdoc": {
    "kind": "dev",
    "methods": {
      "onERC721Received(address,address,uint256,bytes)": {
        "details": "See {IERC721Receiver-onERC721Received}. Always returns `IERC721Receiver.onERC721Received.selector`."
      }
    },
    "version": 1
  },
  "userdoc": {
    "kind": "user",
    "methods": {},
    "version": 1
  }
}